:100000000C9496030C94BE030C94BE030C94BE0394
:100010000C94BE030C94BE030C94BE030C94BE035C
:100020000C94BE030C94BE030C94440F0C94B60FB6
:100030000C94BE030C94BE030C94BE030C94BE033C
:100040000C94BE030C94BE030C94BE030C94BE032C
:100050000C94BE030C94BE030C94BE030C94670670
:100060000C94BE030C94BE030C94BE030C94BE030C
:100070000C94BE030C94BE030C94BE030C94BE03FC
:100080000C94B1060C94BE030C94BE030C94BE03F6
:100090000C94BE030C94BE030C94BE030C94BE03DC
:1000A0000C94BE030C94BE030C94BE036D004D0073
:1000B0006D696E004D616A00202D20003A20004BD2
:1000C00065792000202D20004B65793A2000000042
:1000D0000000003E5B4F5B3E3E6B4F6B3E1C3E7C28
:1000E0003E1C183C7E3C181C577D571C1C5E7F5ED6
:1000F0001C00183C1800FFE7C3E7FF001824180095
:10010000FFE7DBE7FF30483A060E2629792926402B
:100110007F050507407F05253F5A3CE73C5A7F3E57
:100120001C1C08081C1C3E7F14227F22145F5F00E9
:100130005F5F06097F017F006689956A6060606085
:100140006094A2FFA29408047E040810207E201070
:1001500008082A1C08081C2A08081E101010100C79
:100160001E0C1E0C30383E3830060E3E0E060000C7
:1001700000000000005F00000007000700147F146B
:100180007F14242A7F2A12231308646236495620DA
:10019000500008070300001C2241000041221C00FF
:1001A0002A1C7F1C2A08083E0808008070300008BE
:1001B00008080808000060600020100804023E5192
:1001C00049453E00427F4000724949494621414924
:1001D0004D331814127F1027454545393C4A49498B
:1001E0003141211109073649494936464949291EF5
:1001F00000001400000040340000000814224114E4
:1002000014141414004122140802015909063E4135
:100210005D594E7C1211127C7F494949363E41415D
:1002200041227F4141413E7F494949417F090909B6
:10023000013E414151737F0808087F00417F410022
:100240002040413F017F081422417F404040407FD1
:10025000021C027F7F0408107F3E4141413E7F091E
:100260000909063E4151215E7F091929462649495F
:10027000493203017F01033F4040403F1F2040209F
:100280001F3F4038403F631408146303047804039D
:100290006159494D43007F4141410204081020004B
:1002A0004141417F040201020440404040400003BC
:1002B00007080020545478407F2844443838444488
:1002C0004428384444287F385454541800087E0980
:1002D0000218A4A49C787F0804047800447D4000A0
:1002E0002040403D007F1028440000417F40007CBA
:1002F000047804787C080404783844444438FC18B2
:1003000024241818242418FC7C0804040848545495
:10031000542404043F44243C4040207C1C204020C2
:100320001C3C4030403C44281028444C9090907C29
:100330004464544C4400083641000000770000003B
:100340004136080002010204023C2623263C1EA17D
:10035000A161123A4040207A3854545559215555DC
:10036000794121545478412155547840205455798D
:10037000400C1E527212395555555939545454591E
:1003800039555454580000457C410002457D4200D7
:1003900001457C40F0292429F0F0282528F07C54E0
:1003A0005545002054547C547C0A097F4932494900
:1003B00049323248484832324A4848303A4141216D
:1003C0007A3A42402078009DA0A07D3944444439C7
:1003D0003D4040403D3C24FF2424487E4943662B59
:1003E0002FFC2F2BFF0929F620C0887E09032054FB
:1003F0005479410000447D413048484A32384040F9
:10040000227A007A0A0A727D0D19317D2629292F58
:1004100028262929292630484D4020380808080870
:1004200008080808382F10C8ACBA2F102834FA0072
:10043000007B000008142A142222142A14089500B4
:10044000220095AA005500AAAA55AA55AA000000A4
:10045000FF00101010FF00141414FF001010FF0014
:10046000FF1010F010F0141414FC001414F700FF27
:100470000000FF00FF1414F404FC141417101F10E4
:10048000101F101F1414141F00101010F000000093
:10049000001F101010101F10101010F0100000009E
:1004A000FF101010101010101010FF10000000FFAF
:1004B000140000FF00FF00001F10170000FC04F4F0
:1004C00014141710171414F404F40000FF00F714A8
:1004D000141414141414F700F7141414171410102F
:1004E0001F101F141414F4141010F010F000001F4B
:1004F000101F0000001F14000000FC140000F0108A
:10050000F01010FF10FF141414FF141010101F002F
:10051000000000F010FFFFFFFFFFF0F0F0F0F0FF31
:10052000FFFF0000000000FFFF0F0F0F0F0F384408
:100530004438447C2A2A3E147E02020606027E02C9
:100540007E0263554941633844443C04407E201E8A
:100550002006027E020299A5E7A5991C2A492A1CB9
:100560004C7201724C304A4D4D303048784830BCA6
:10057000625A463D3E494949007E0101017E2A2AD0
:100580002A2A2A44445F444440514A444040444A51
:1005900051400000FF0103E080FF000008086B6B82
:1005A000083612362436060F090F06000018180008
:1005B00000001010003040FF0101001F01011E006B
:1005C000191D1712003C3C3C3C00000000000102D9
:1005D00004081020408000B00000A170E150964F48
:1005E00026900F1D070C009669004AE44A00484413
:1005F0004000806810000F99FB8F99BDBBF977D43C
:10060000D4DF1F1A1AFE7F5D5DFF805A0000A0A490
:10061000AA0010BA3400FF5953F3FF9B9B9EFFB909
:10062000B996FF9595D19FF4940FFC295F91FF181F
:1006300038F8FF9294FFFF95D5F77FD5DDD7F18F7E
:1006400081F1F788C8F779C6467909FD9B090196BB
:10065000F80082818280507162007756560076766B
:100660003700A2B773010772060078275000733471
:100670007400775176007F55F700477110003247BC
:1006800072007364730015A2750061679400009F87
:100690006060F4F2F6F2080B0002020201000904A5
:1006A00000000102020000052400100105240101E0
:1006B0000104240206052406000107058103100039
:1006C0004009040100020A00000007050202400080
:1006D0000007058302400000040309041201000220
:1006E000EF02014041233680000101020301417203
:1006F0006475696E6F204C4C430041726475626F83
:100700007900D5F08D14A1C881CFD9F1AF200006B2
:10071000011501260137014A015D01720188019F1F
:1007200001B801D201EE01001A18AE1411241FBE47
:10073000CFEFDAE0DEBFCDBF11E0A0E0B1E0E4E151
:10074000F8E302C005900D92AA3AB107D9F727E065
:10075000AAEAB1E001C01D92AA30B207E1F713E0A6
:10076000C5E9D3E004C02197FE010E94E219C43913
:10077000D107C9F70E94C7140C94FD1B0C9400000C
:100780003FB7F8948091BD019091BE01A091BF0147
:10079000B091C00126B5A89B05C02F3F19F0019666
:1007A000A11DB11D3FBFBA2FA92F982F8827820FF7
:1007B000911DA11DB11DBC01CD0142E0660F771F47
:1007C000881F991F4A95D1F708958F929F92AF92F3
:1007D000BF92CF92DF92EF92FF920F931F93CF932E
:1007E000DF938C016B0198E0E92EF12CE42FE69564
:1007F000E695E695F0E0CA0187709927892BC1F547
:10080000D8011696CD91DC911797C6019927BE01A4
:100810000E94BA19D80150964D915C915197992731
:1008200014966D917C911597452B91F4EC9FA00146
:10083000ED9F500DFC9F500D1124840F951FFB015F
:10084000E80FF91FC22FC09520812C23208332C0CE
:10085000EC9FA001ED9F500DFC9F500D1124840FC3
:10086000951FFB01E80FF91FC081C22BC08322C076
:10087000C22FD0E04770A42EB12C4F0183E0880C2A
:10088000991C8A95E1F79E0101C0220F4A95EAF76B
:10089000A401B601C8010E94E503C7018A199B099A
:1008A00002C0D595C7958A95E2F72C2FA401485F21
:1008B0005F4F9CCFDF91CF911F910F91FF90EF90F1
:1008C000DF90CF90BF90AF909F908F9008958F92C0
:1008D0009F92AF92BF92CF92DF92EF92FF921F93BF
:1008E000CF93DF93EC016A3061F48C859D859B8703
:1008F0008A872B898E859F85820F911D9F878E8782
:100900005EC0AA84BB84693031F489E0A80EB11CB2
:10091000BB86AA8654C0EE84FF849DEFA9169FEF84
:10092000B90654F48A8990E004962A853B85820FA3
:10093000931F9B878A8743C08E819F81A816B90623
:100940008CF78DEFE8168FEFF80664F388859985AC
:10095000E816F9063CF7603208F46FE780EE860F80
:100960009FE9960F9A3118F49FEFE91AF90A8C3033
:1009700011F08B3119F49FEFE91AF90A869594E08A
:10098000899F60011124812C912C162F1170F40184
:10099000EC0DFD1DEA52FA4F2491111122952F7092
:1009A000B4016A0D7B1DA701CE010E94E5038FEF04
:1009B000881A980A94E08916910449F7B3CF81E028
:1009C00090E0DF91CF911F91FF90EF90DF90CF905B
:1009D000BF90AF909F908F9008958091B101E0916A
:1009E000AF01F091B001882349F0CF0102969093B6
:1009F000B0018093AF01859194910895CF01029643
:100A00009093B0018093AF01808191810895CF923E
:100A1000DF92EF92FF920F931F93CF93DF930E9489
:100A2000ED04811520E8920761F4809171008D7FBB
:100A30008093710010929100469847981092CB01D4
:100A40008BC021E02093CB01813020E8920751F444
:100A50008091AD019091AE019093B0018093AF0170
:100A60000E94ED0497FD05C02091C901222309F4DD
:100A70003FC02091CA0121113BC021E02093B20167
:100A8000EC01DF77209769F481E08093B301469809
:100A90003FE9C32E3FE0D32EE12CF12CCAEFD0E08A
:100AA00014C08E0120E030E060E472E48FE090E05A
:100AB000A90198010E94271969017A0181E0C81AE9
:100AC000D108E108F1081092B301E0913502F091EC
:100AD00036020995811103C081E08093B3018091B2
:100AE000B2018823B9F18091B301811133C003C0F1
:100AF0001092B201C5CF46992DC0479A0E94ED04CD
:100B0000009771F09C01DE010E949F19DC01CB016E
:100B100029E0B595A795979587952A95D1F703C0B4
:100B20008FEF9FEFDC01109290002AE0209391005C
:100B3000D0929900C09298008093B4019093B5012F
:100B4000A093B601B093B701809171008260809349
:100B5000710002C04798D2CFDF91CF911F910F91C2
:100B6000FF90EF90DF90CF9008958091AC010895B1
:100B700008958F929F92AF92BF92CF92DF92EF92A1
:100B8000FF920F931F93CF93DF93CDB7DEB72C97D0
:100B90000FB6F894DEBF0FBECDBF7C016B015A01CA
:100BA000490169E571E0CE0101960E94DF12F6016C
:100BB000048115810A151B05C4F4BE016F5F7F4FC8
:100BC000CE0107960E94D612B401CE0107960E946C
:100BD0002F12BC01CE0101960E948212CE0107960F
:100BE0000E9499120F5F1F4FE5CFB601CE01079605
:100BF0000E94D612BE016F5F7F4FCE0107960E9402
:100C00002F12BC01C7010E94D612CE0107960E9486
:100C10009912CE0101960E949912C7012C960FB627
:100C2000F894DEBF0FBECDBFDF91CF911F910F9122
:100C3000FF90EF90DF90CF90BF90AF909F908F90FC
:100C400008958F929F92AF92BF92CF92DF92EF92D0
:100C5000FF926B017C010E94C0034B015C01C11437
:100C6000D104E104F104F1F00E94C003DC01CB01E6
:100C700088199909AA09BB09883E9340A105B105C5
:100C800070F321E0C21AD108E108F10888EE880E5D
:100C900083E0981EA11CB11CC114D104E104F1042D
:100CA00019F7DDCFFF90EF90DF90CF90BF90AF901E
:100CB0009F908F9008952FB7F8946091B90170912B
:100CC000BA018091BB019091BC012FBF08951F9282
:100CD0000F920FB60F9211242F933F938F939F93F0
:100CE000AF93BF938091B9019091BA01A091BB01DC
:100CF000B091BC013091B80123E0230F2D3720F4CF
:100D00000196A11DB11D05C026E8230F0296A11D65
:100D1000B11D2093B8018093B9019093BA01A093BB
:100D2000BB01B093BC018091BD019091BE01A09127
:100D3000BF01B091C0010196A11DB11D8093BD01FD
:100D40009093BE01A093BF01B093C001BF91AF913A
:100D50009F918F913F912F910F900FBE0F901F90F9
:100D600018951F920F920FB60F9211242F933F9355
:100D70004F935F936F937F938F939F93AF93BF93A3
:100D8000EF93FF938091B4019091B501A091B601CA
:100D9000B091B701892B8A2B8B2B81F18091B30104
:100DA00081110BC098B180E4892788B98091B20184
:100DB000882319F088B1805888B98091B401909146
:100DC000B501A091B601B091B701181619061A061F
:100DD0001B06B4F48091B4019091B501A091B601C5
:100DE000B091B7010197A109B1098093B401909323
:100DF000B501A093B601B093B70102C00E940705E8
:100E0000FF91EF91BF91AF919F918F917F916F91E2
:100E10005F914F913F912F910F900FBE0F901F90B8
:100E200018959C01E1E7F0E090819D7F90831092FE
:100E3000B101E7E2F2E0F093B001E093AF01F0938B
:100E4000AE01E093AD01318320837383628380E040
:100E500090E8958384830C940705BC0180E090E0C2
:100E60000C9421068FB12CB193B130E020953095D0
:100E700020743327A90123E0559547952A95E1F77A
:100E8000292F30E02095309520713327359527950F
:100E900035952795242B8095807F822B08955C982B
:100EA0008EBD00000DB407FEFDCF5C9A0895109230
:100EB000AC013E983F9808953E9A3F9A81E0809316
:100EC000AC010895FC01840F911D18161906E4F574
:100ED000E038F105CCF5F7FF02C0E0E0F0E0813842
:100EE000910514F080E890E0382F3E1BAB0177FFAE
:100EF00002C0495F5F4F83E0559547958A95E1F7BA
:100F00005695542F442757954795E40FF51FE953FD
:100F1000FD4F6770772781E090E001C0880F6A95E8
:100F2000EAF7482F222349F0213071F4315020F0A4
:100F30008081842B8193FACF08958095315020F0E1
:100F4000908198239193FACF0895EEECF5E090E12B
:100F5000969FD001A0781124A80F6770E60FF11DAD
:100F60008491A953BD4F442321F0EC91E82BEC93DD
:100F70000895E82FE0958C918E238C9308952F92FD
:100F80003F924F925F926F927F928F929F92AF9219
:100F9000BF92CF92DF92EF92FF920F931F93CF9366
:100FA000DF9300D000D01F92CDB7DEB76038710557
:100FB0000CF06FC0403451050CF06BC0CB0135E034
:100FC000C39E800D911D1124181619060CF061C0E6
:100FD0002C2C312CCA01E8E0CE9E800D911D1124ED
:100FE000181619060CF055C0F02E4A01F5E02F9F97
:100FF000800111247D836C8302531F4F20E0F80190
:10100000D490253009F4D12C240158E0D0FC02C042
:101010003E2D01C03F2D311109C0EF1007C0D694FD
:101020005150420C531C5111F1CF27C0AC80BD80F0
:101030008A2DFC818F1B8C1590F73201862D841927
:101040008C15B8F4F0E8AF16B10478F480E46816B3
:10105000710458F4432FB301C5012A8339835B839C
:101060000E94A5075B8139812A819FEF691A790A5D
:10107000E5CFEFEFAE1ABE0ADBCF2F5F8C819D81EB
:10108000820D931D9D838C830F5F1F4F263009F0C7
:10109000B6CF0F900F900F900F900F90DF91CF91E0
:1010A0001F910F91FF90EF90DF90CF90BF90AF9086
:1010B0009F908F907F906F905F904F903F902F9078
:1010C0000895CF92EF920F93CF93DF93EC016A30A4
:1010D00069F42C8D888D998D38E0239F800D911DAA
:1010E0001124998F888F1F8A1E8A2EC06D3061F15E
:1010F000262F488D598D6E897F89CC8CEB8C0A8D7B
:101100000E94BF072C8D422F50E08E899F8936E0C8
:10111000239F800D911D11249F8B8E8B2D8D22235B
:1011200099F06AEF64039001659F300D11242058F7
:101130003F4F2817390744F4E881F9810190F08185
:10114000E02D6AE0CE01099581E090E0DF91CF913A
:101150000F91EF90CF9008958091C7028EBDE8EC7B
:10116000F2E081910DB407FEFDCF8EBD86E0E73C35
:10117000F807B9F70DB407FEFDCF0895CF93DF93BD
:10118000EC01655F7F4F6731710518F066E571E02E
:1011900002C064E571E0CE010E94DF12CE01DF9152
:1011A000CF910895AF92BF92CF92DF92EF92FF92CC
:1011B0000F931F93CF93DF932091AA013091AB013E
:1011C000820F931F8730910514F086E090E097FF1F
:1011D00002C080E090E09093AB018093AA01C0E050
:1011E000D0E020E045E06BE370E0CE010E941513F3
:1011F0002196C038D105A9F708E110E0C0E0D0E0A1
:101200008CE3A82EB12C1093D4060093D306109330
:10121000D2060093D106B092D606A092D506C09011
:10122000AA01D090AB01CC0EDD1E8FEFC81AD80AF0
:101230000D2C000CEE08FF08F7FE14C0E091C70665
:10124000F091C8060190F081E02D6DE287EC96E008
:10125000099566277727CB016C197D098E099F09AF
:101260004AE003C04AE0C701B6010E947B13219601
:101270000F5E1F4FC630D10531F68091AA019091C3
:10128000AB01892B11F421E001C020E043E166E2CB
:1012900070E080E190E0DF91CF911F910F91FF907E
:1012A000EF90DF90CF90BF90AF900C9415134F92BA
:1012B0005F926F927F928F929F92AF92BF92CF92E6
:1012C000DF92EF92FF920F931F93CF93DF93EC0186
:1012D000562E8336910509F050C001E211E0C6E2B6
:1012E000D0E0EE24E394F12C46E0D42E21E04AE64F
:1012F000BE0182E190E00E946207F092D406E09283
:10130000D306F092D206E092D106CE0102979093D6
:10131000D6068093D506F80161918F012D2D6203C9
:10132000B001112461587D4F87EC96E00E94E611D0
:101330002696CE33D105D1F6C2E1D0E021E043E1DB
:1013400066E270E0CE010E9415136196C938D1059E
:10135000A9F780E090E0DF91CF911F910F91FF906E
:10136000EF90DF90CF90BF90AF909F908F907F9045
:101370006F905F904F900C94D20881E2E82E81E04C
:10138000F82E06E210E09CE0C92ED12C21E1422E7D
:101390005E018CE0A80EB11C4E01EBE08E0E911C9C
:1013A000F70121917F014091AA015091AB01822F59
:1013B000840FE6E0E80F90E0022E000C330BC81714
:1013C000D9072CF06E2F70E06C177D075CF4A8161F
:1013D000B9062CF08E2F90E0881699061CF0C217E3
:1013E000D30719F5420F531FCE01841B950B0C96A2
:1013F000B6010E94BA193C01892B21F4C217D30708
:10140000A1F403C0C217D30731F4452DB80189E018
:1014100090E00E94CC13469CC001479C900D112483
:10142000452DB80109960E94CC135520B9F00A5FEA
:101430001F4F0E33110509F0B3CFDF91CF911F91EC
:101440000F91FF90EF90DF90CF90BF90AF909F9063
:101450008F907F906F905F904F90089521E04CE6C1
:10146000B80182E190E00E946207E1CFCF92DF9263
:10147000EF92FF921F93CF93DF93C82F6B01809160
:10148000CC019091CD016CE070E00E94BA19182F48
:10149000C7300CF0C6E0C7FDC0E0E12CF12C0C2EEB
:1014A000000CDD0BCE15DF05D4F0F60184819581AB
:1014B000892B61F064E571E0808191810E94ED1BD0
:1014C000892B21F4F701E65EFE4F03C0F701ED5EC4
:1014D000FE4F8081180FFFEFEF1AFF0AE3CF812F35
:1014E000DF91CF911F91FF90EF90DF90CF90089503
:1014F000AF92BF92CF92DF92EF92FF920F931F9322
:10150000CF93DF93CDB7DEB762970FB6F894DEBF07
:101510000FBECDBFF82E062F81E090E09093F3062A
:101520008093F2061092F5061092F40688EC90E093
:101530000E94F41268E571E0CE0107960E94DF1266
:101540008091CC019091CD014CE0C42ED12CB601FC
:101550000E94BA1916E0189F9001199F300D1124AE
:10156000B90161587D4FCE0101960E94D6129E01AD
:10157000295F3F4F42E050E0BE016F5F7F4FCE01D9
:101580000D960E94B905BE01635F7F4F8CED96E01A
:101590000E94E611CE010D960E949912CE0101968D
:1015A0000E949912CE0107960E94991284EC90E055
:1015B0000E94F41268E571E0CE0107960E94DF12E6
:1015C0008091CC019091CD01B6010E94BA19189F6B
:1015D0009001199F300D1124B901695C7D4FCE0136
:1015E00001960E94D6129E01295F3F4F43E050E0D2
:1015F000BE016F5F7F4FCE010D960E94B905BE01FF
:10160000635F7F4F8CED96E00E94E611CE010D9650
:101610000E949912CE0101960E949912CE0107965E
:101620000E94991223E6F2123AC08FE7E82E82E078
:10163000F82E00E010E096E0C92ED12C24E1A22E75
:101640003AE0B32EC801B6010E94BA19A89E9001D3
:10165000A99E300D1124C9010A969093F306809338
:10166000F206B69EC001B79E900D11240D96909380
:10167000F5068093F406B7018CED96E00E94E61122
:101680000F5F1F4F86E0E80EF11C0C301105D1F6FC
:1016900021E044E16BE070E087E090E025C08F2D11
:1016A000612F0E94AE192AE0829FF0011124BF0130
:1016B000655F7F4F24E1929FC001112420E044E147
:1016C00007960E944C13802F612F0E94AE192AE0CA
:1016D000829FB0011124655F7F4F24E1929FC0017A
:1016E000112421E044E107960E944C1362960FB644
:1016F000F894DEBF0FBECDBFDF91CF911F910F9148
:10170000FF90EF90DF90CF90BF90AF900895EF9251
:10171000FF920F931F93CF93DF93CDB7DEB7A497BC
:101720000FB6F894DEBF0FBECDBF69E571E0CE0104
:1017300001960E94DF1281E090E09093F30680937F
:10174000F2061092F5061092F4068FEB90E00E94DC
:10175000F4126091CC017091CD01CE0107960E94E8
:10176000BE088B859C85892B41F064E571E08F81F3
:1017700098850E94ED1B892B19F080EB90E002C048
:1017800084EB90E00E94F412CE0107960E94991219
:101790008CEB90E00E94F41268E571E0CE010D96AA
:1017A0000E94DF128091CC019091CD012CE0E22EBD
:1017B000F12CB7010E94BA1916E0189F9001199FE9
:1017C000300D1124B90161587D4FCE0107960E945A
:1017D000D6129E01235F3F4F42E050E0BE01695F99
:1017E0007F4FCE0143960E94B905BE016D5E7F4FCB
:1017F0008CED96E00E94E611CE0143960E9499126C
:10180000CE0107960E949912CE010D960E94991260
:1018100088EB90E00E94F41268E571E0CE010D962D
:101820000E94DF128091CC019091CD01B7010E94FE
:10183000BA19189FB001199F700D1124695C7D4F72
:10184000CE0107960E94D6129E01235F3F4F43E0D0
:1018500050E0BE01695F7F4FCE0143960E94B905FB
:10186000BE016D5E7F4F8CED96E00E94E611CE01C9
:1018700043960E949912CE0107960E949912CE01BA
:101880000D960E94991210E03CE0F32E06E068E508
:1018900071E0CE0149960E94DF126EEA70E0CE013F
:1018A0000D960E949E12BE01635F7F4F812F0E94A2
:1018B000360A6F2D0E94AE19099FB001112461589C
:1018C0007D4FCE0143960E94D6129E01275E3F4F68
:1018D00043E050E0BE016D5E7F4FCE014F960E9407
:1018E000B905BE016F5F7F4FCE0107960E94D612E9
:1018F000BE01615E7F4FCE0107960E942F12BC0190
:10190000CE0101960E948212CE0107960E94991282
:10191000CE014F960E949912CE0143960E949912D1
:10192000CE010D960E949912CE0149960E949912FD
:101930001F5F173009F0ABCF81E090E09093F30682
:101940008093F2068DE090E09093F5068093F40684
:10195000BE016F5F7F4F8CED96E00E94E61140E084
:1019600050E069E571E0CE0101960E94611210E03D
:101970008CE0F82E06E068E571E0CE0149960E9401
:10198000DF126CEA70E0CE010D960E949E12BE013D
:10199000635F7F4F812F0E94360A6F2D0E94AE1920
:1019A000099FB001112461587D4FCE0143960E94DA
:1019B000D6129E01275E3F4F43E050E0BE016D5EB0
:1019C0007F4FCE014F960E94B905BE016F5F7F4FDA
:1019D000CE0107960E94D612BE01615E7F4FCE01F6
:1019E00007960E942F12BC01CE0101960E9482121E
:1019F000CE0107960E949912CE014F960E9499122D
:101A0000CE0143960E949912CE010D960E94991222
:101A1000CE0149960E9499121F5F173009F0ABCF93
:101A200081E090E09093F3068093F20687E190E0E6
:101A30009093F5068093F406BE016F5F7F4F8CEDA7
:101A400096E00E94E611CE0101960E949912A4969A
:101A50000FB6F894DEBF0FBECDBFDF91CF911F91BF
:101A60000F91FF90EF9008954091C3015091C401F0
:101A70002091C1013091C20142175307B4F49091F3
:101A8000E8009570E1F39091E80092FD19C0809311
:101A9000F1008091C3019091C40101968F73992741
:101AA000892B19F48EEF8093E8008091C301909107
:101AB000C40101969093C4018093C30181E008950D
:101AC00080E00895CF92DF92EF92FF920F931F93E1
:101AD000CF93DF931F92CDB7DEB7182F062FE42EDA
:101AE000862F880F8E5F99830E94340D83E00E94B9
:101AF000340DF12EC12E9981D92E8C2D8F1980177E
:101B000098F4F601E7FE02C0849101C080810E9432
:101B1000340D182F80E00E94340D8123FFEFCF1A7F
:101B2000DF0A8111EACF01C081E00F90DF91CF91F0
:101B30001F910F91FF90EF90DF90CF900895DF926B
:101B4000EF92FF920F931F93CF93DF93D82E8A01CA
:101B50007B01E40EF51EEB01CE15DF0571F0D7FE1B
:101B600003C0FE01849101C088810E94340D21963A
:101B70008111F2CF8FEF9FEF01C0C801DF91CF91AC
:101B80001F910F91FF90EF90DF900895615030F01A
:101B90002091F100FC0120830196F8CF289884E67B
:101BA0008093D5010895CF92DF92EF92FF920F9329
:101BB0001F93CF93DF936C017A018B01C0E0D0E0DB
:101BC000CE15DF0589F0D8016D918D01D601ED911B
:101BD000FC910190F081E02DC6010995892B11F44B
:101BE0007E0102C02196ECCFC701DF91CF911F91FA
:101BF0000F91FF90EF90DF90CF900895CF93DF93F8
:101C00001F92CDB7DEB76983DC01ED91FC910280B4
:101C1000F381E02D41E050E0BE016F5F7F4F0995F9
:101C20000F90DF91CF91089583E08093E900809138
:101C3000F200882319F08AE38093E8000895FC01FC
:101C40008485958597FD0BC09FB7F89482E08093BB
:101C5000E9008091F2009FBF90E0019608959FB740
:101C6000F89482E08093E9008091F2009FBF90E0B9
:101C700008950F931F93CF93DF931F92CDB7DEB7D5
:101C800082E0898342E450E066E976E080E80E94E1
:101C90009F0D0E945914DC0112960D911C9113970F
:101CA0000115110569F0D801ED91FC910280F381D5
:101CB000E02DBE016F5F7F4FC801099597FF07C0F8
:101CC00089810F90DF91CF911F910F910895F801B5
:101CD00000851185E5CF7F928F929F92AF92BF9240
:101CE000CF92DF92EF92FF920F931F93CF93DF93E8
:101CF0006C015B017A0180910B01882309F46BC0B0
:101D00008091D601882309F466C08091C70180FFC5
:101D100005C08091E00082608093E000E70110E060
:101D20000AEF83E0982E90E4792E2AE3822E209702
:101D300009F448C08FB7F8949092E9009091E800B8
:101D400095FF06C09091F200272D291B922F01C00C
:101D500090E08FBF91110AC0015009F43CC061E0CE
:101D600070E080E090E00E942106E1CF292F30E072
:101D7000C217D3070CF49C2F8FB7F8949092E90008
:101D80002091E80025FF1CC0292F30E0C21BD30B97
:101D9000F501915020F041914093F100FACFA20E4D
:101DA000B31E112319F08092E80009C09091E80059
:101DB00095FD06C08092E80011E0209709F010E040
:101DC0008FBFB5CF1111B6CF5D9884E68093C50162
:101DD0001E141F0444F081E090E0F6019383828397
:101DE00080E090E001C0C701DF91CF911F910F917A
:101DF000FF90EF90DF90CF90BF90AF909F908F902B
:101E00007F900895CF93DF931F92CDB7DEB7FC018B
:101E10008485958597FD05C02FEF3FEF3587248793
:101E20000BC0CE0101960E942F14019719F48981ED
:101E300090E002C08FEF9FEF0F90DF91CF91089558
:101E40000F931F93CF93DF931F92CDB7DEB78C0113
:101E5000FC018485958597FF0EC0CE0101960E94F6
:101E60002F14019719F4298130E002C02FEF3FEFC2
:101E7000F80135872487F801848595850F90DF91D7
:101E8000CF911F910F9108951F920F920FB60F924D
:101E900011248F939F938091E1009091E100937FB3
:101EA0009093E10083FF0FC01092E90091E09093BE
:101EB000EB001092EC0092E39093ED001092D601AB
:101EC00098E09093F00082FF20C093E09093E900A7
:101ED0009091F200992319F09AE39093E800909181
:101EE000C501992339F09091C50191509093C50196
:101EF000992389F19091D501992339F09091D501D9
:101F000091509093D501992341F184FF10C08091A5
:101F1000E2008E7E81608093E2008091E1008F7EFE
:101F20008093E1008091C7018E7E806111C080FFA7
:101F300016C08091E2008E7E80618093E2008091E5
:101F4000E1008E7E8093E1008091C7018E7E8160EA
:101F50008093C70104C05D9ACDCF289AD6CF9F91B8
:101F60008F910F900FBE0F901F9018951F920F9298
:101F70000FB60F921124CF92DF92EF92FF920F9340
:101F80001F932F933F934F935F936F937F938F9301
:101F90009F93AF93BF93EF93FF93CF93DF93CDB70F
:101FA000DEB76C97DEBFCDBF1092E9008091E800EC
:101FB00083FFEDC168E0CE0145960E94C60D82EF19
:101FC0008093E8008D8987FF05C09091E80090FF1D
:101FD000FCCF03C09EEF9093E800982F907609F015
:101FE000C6C09E892F89188D91110CC0803829F4A4
:101FF0008091C8018093F10002C01092F10010920C
:10200000F10048C1422F50E0512B913051F4811121
:1020100041C14130510509F03DC18091C8018D7F1A
:102020000BC0933061F4811135C14130510509F085
:1020300031C18091C80182608093C8012BC1953065
:1020400041F48091E80080FFFCCF20682093E300FA
:1020500021C1963009F05FC0EB8CFC8C1092E90036
:102060001092C4011092C301123091F51092C20176
:102070001092C1010E94390E99E0BE016F5F7F4F3F
:10208000DB01E92F1D92EA95E9F799831A8391E024
:102090009E8390EA98879AEF99872091C3013091A7
:1020A000C401275F3F4F3C832B838D831092E9004F
:1020B0001092C4011092C301F092C201E092C101DA
:1020C00049E050E080E00E949F0D0E94390EE2C07E
:1020D000F092C201E092C1010E945914DC011296F3
:1020E000ED90FC901397E114F10409F4C0C0D701FE
:1020F000ED91FC910480F581E02DBE016B5E7F4F78
:10210000C7010995009719F00CF0C4C0C7C0F701CA
:10211000E084F184E8CF973009F4C0C0983021F40E
:1021200081E08093F100B6C0993009F0B3C08370AC
:1021300009F0B4C0E6E2F1E081E021E036E390810D
:10214000992361F08093E9002093EB0091919093A3
:10215000EC003093ED008F5F873089F78EE7809336
:10216000EA001092EA008F898093D60193C08B8D8C
:102170009C8D1092E9001092C4011092C3019093BB
:10218000C2018093C101898D811156C08E899D89BC
:10219000913A59F4813209F081C047E050E064E09F
:1021A00071E080E00E949F0D75C0913209F076C009
:1021B000833289F4888D90E0982F88272F89822B8D
:1021C000A0E0B0E08093000190930101A093020190
:1021D000B09303015FC0803269F48091E80082FF10
:1021E000FCCF67E084E091E00E94C60D8BEF809306
:1021F000E80006C0823209F04DC08F8980930B0140
:102200008091C601882319F0EEEFFAE002C0E0E009
:10221000F8E08091040190910501A0910601B09130
:102220000701803B9440A105B10509F07BC0809176
:102230000B0180FF93C076C00E945914DC011296F6
:102240000D911C9113970115110541F1D801ED91E4
:10225000FC910190F081E02DBE016B5E7F4FC801C3
:102260000995811117C0F80100851185ECCF113057
:1022700009F44EC0133091F48F89882309F445C0C6
:10228000823081F440E867E08AEF96E00E94620DB8
:10229000882321F08EEF8093E80079C081E280935B
:1022A000EB0075C0813029F440E86BE08EEE96E0DB
:1022B000EDCF833099F70E945914DC011296ED900E
:1022C000FC9013978E010F5F1F4F6801E114F1041A
:1022D00079F0D701ED91FC910680F781E02DB801EE
:1022E000C7010995080F111DF701E084F184EECFB5
:1022F000D8011C92F60101900020E9F73197BF0147
:102300006C197D0940E0C601C1CF68ED76E002C0DE
:102310006CED76E06115710509F2FB01449150E026
:1023200080E840CF0FB6F894A8958091600088614E
:1023300080936000109260000FBEA895EE3F2AE0E7
:10234000F20739F08091FE0A9091FF0A9183808311
:10235000A1CF1092FF0A1092FE0A9CCFEE3F8AE0B6
:10236000F80731F0808191819093FF0A8093FE0AF3
:1023700087E797E7918380839BE088E10FB6F89425
:10238000A895809360000FBE9093600083CF6C96F9
:102390000FB6F894DEBF0FBECDBFDF91CF91FF9196
:1023A000EF91BF91AF919F918F917F916F915F91CD
:1023B0004F913F912F911F910F91FF90EF90DF90E0
:1023C000CF900F900FBE0F901F901895DC01ED91EC
:1023D000FC91DB0114964D915C9115976D917C9168
:1023E0000280F381E02D09940E94DF1B0F931F935D
:1023F000CF93DF93EC0188819981009729F02A819E
:102400003B812617370788F48B016F5F7F4F0E944F
:10241000151B009761F0998388831B830A832C81A5
:102420003D81232B11F4FC01108281E001C080E08A
:10243000DF91CF911F910F910895CF93DF93EC011E
:1024400088819981009711F00E947D1A1982188263
:102450001D821C821B821A82DF91CF910895EF9218
:10246000FF920F931F93CF93DF93EC01FB018481C5
:102470009581E080F1800C811D81E114F104B1F0BF
:102480000097B9F0080F191FB801CE010E94F6118C
:10249000882361F0288139818C819D81B701820F69
:1024A000931F0E94F61B1D830C8303C0CE010E9464
:1024B0001D12CE01DF91CF911F910F91FF90EF90F0
:1024C0000895EF92FF920F931F93CF93DF93EC0148
:1024D0007B018A01BA010E94F611811104C0CE016C
:1024E0000E941D1207C01D830C83B701888199814A
:1024F0000E94F61BCE01DF91CF911F910F91FF90AB
:10250000EF900895CF93DF93EC01FB0186179707B7
:1025100061F0608171816115710529F044815581F7
:102520000E94611202C00E941D12CE01DF91CF9164
:102530000895FC01808191810C947D1AEF92FF92A5
:102540000F931F93CF93DF93EC01198218821B82A4
:102550001A821D821C826115710509F18B01CB0164
:102560000E9416197C01BC01CE010E94F611811156
:1025700009C0CE01DF91CF911F910F91FF90EF9095
:102580000C941D12FD82EC82B80188819981DF9143
:10259000CF911F910F91FF90EF900C940F19DF9145
:1025A000CF911F910F91FF90EF900895FC01118240
:1025B000108213821282158214820C948212FC0102
:1025C00011821082138212821582148261157105A4
:1025D00051F0FB0101900020E9F73197AF01461B54
:1025E000570B0C94611208950F931F93CF93DF93B1
:1025F0008C01C0E0D0E0F801EC0FFD1F6491662370
:1026000071F0E091DC06F091DD060190F081E02DA3
:102610008CED96E00995892B11F02196ECCFCE0137
:10262000DF91CF911F910F910895CF92DF92EF929A
:10263000FF920F931F93CF93DF931F92CDB7DEB717
:102640007C018B01040F111D6B0177FF14C0C12C9D
:10265000D12C11C0C616D706ACF480E8E816F104F8
:1026600038F4422FB601C70129830E94A5072981AA
:102670008FEFC81AD80AB801013411055CF360E481
:1026800070E0E8CF0F90DF91CF911F910F91FF90F5
:10269000EF90DF90CF900895EF92FF920F931F93EA
:1026A000CF93DF93EC018B01E42EF22E60347105A1
:1026B00010F40E946207B801665F7F4F60347105B5
:1026C00028F42F2D4E2DCE010E9462072F2D4BE0B6
:1026D000B801CE010E941513CE018E0D911D2F2D34
:1026E0004BE0B8010197DF91CF911F910F91FF90BF
:1026F000EF900C9415138F929F92AF92BF920F930D
:102700001F93CF93DF93CDB7DEB7A1970FB6F894A1
:10271000DEBF0FBECDBF19A2423008F44AE08E01E1
:102720000F5D1F4F842E912CA12CB12CA50194017B
:102730000E947D19E62FB901CA0101501109EA3042
:1027400014F4E05D01C0E95CD801EC93232B242B49
:10275000252B61F70115110571F0F801019000209A
:10276000E9F73197AF01401B510BB80187EC96E0B8
:102770000E94D30D02C080E090E0A1960FB6F894BD
:10278000DEBF0FBECDBFDF91CF911F910F91BF90E4
:10279000AF909F908F9008954F925F926F927F922B
:1027A0008F929F92AF92BF92CF92DF92EF92FF9261
:1027B0000F931F93CF93DF937C013B01D42F625083
:1027C0007109242F45E00E941513C5E0CC24C39461
:1027D000D12C02E010E098E0492E2D2F4C2F430120
:1027E000801A910AB401C6018E0D9F1D0E94151317
:1027F0002D2F542C5C1A452D5301AC18BD08B50182
:10280000C8018E0D9F1D0E9415132D2F4C2FB40152
:10281000C7018C199D090E9415132D2F452DB50157
:10282000C701801B910B0E941513C33039F0015072
:1028300011098FEFC81AD80AC250CFCFDF91CF91BC
:102840001F910F91FF90EF90DF90CF90BF90AF90CE
:102850009F908F907F906F905F904F900895FC01B4
:102860008091D601811103C08FEF9FEF08959FB72C
:10287000F89482E08093E9002091F20030E0121693
:10288000130614F421E030E02115310559F02898A1
:1028900084E68093D5018091F10080838091F200DD
:1028A000882319F09FBFC90108958BE68093E80043
:1028B000F9CF8091FE0681110DC082E08093FA0667
:1028C00084E08093FB061092FD061092FC0681E0E6
:1028D0008093FE068AEF96E008950F931F93CF939F
:1028E000DF93EC0181E090E00E941F1980FF2EC071
:1028F0008AE090E00E941F199FEF980F9E3F30F5ED
:1029000022E330E03F8B2E8B28E330E0398F288F95
:102910000BE010E0E881F9810190F081E02D682F53
:10292000CE010995C8010E941F190F5F1F4F013189
:10293000110581F7CE0104960E94AC0888EE93E061
:10294000DF91CF911F910F910C942D07DF91CF91C3
:102950001F910F91089504970C946D14CF93DF93FA
:10296000CFE7D2E02697CE010E94991282E0C733CA
:10297000D807C1F7C7ECD2E02697CE010E94991282
:1029800082E0CF37D807C1F7DF91CF910895CF9379
:10299000DF9300D000D000D0CDB7DEB7789484B5F7
:1029A000826084BD84B5816084BD85B5826085BD4B
:1029B00085B5816085BD80916E00816080936E00D9
:1029C00010928100809181008260809381008091CB
:1029D000810081608093810080918000816080937C
:1029E000800080919100826080939100809191009D
:1029F000816080939100809190008160809390002D
:102A00008091C10084608093C1008091C100826088
:102A10008093C1008091C10081608093C10080914A
:102A2000C30081608093C3008091C0008260809366
:102A3000C0008091C20081608093C20080917A00C2
:102A4000846080937A0080917A00826080937A001B
:102A500080917A00816080937A0080917A0080680A
:102A600080937A001092D6011092C8011092C7018B
:102A70008091D70081608093D70080EA8093D8004E
:102A800089B5806189BD89B5826089BD09B400FEC0
:102A9000FDCF61E070E080E090E00E94210680912F
:102AA000D8008F7C80618093D8008091E000807F87
:102AB0008093E0008091E1008E7E8093E1008DE0C4
:102AC0008093E200559A209AEEEFFFE7859194916A
:102AD0008B3F9C4D19F481E08093C60181EC80937B
:102AE0007C0085B1806F85B9249884B1866E84B9E5
:102AF0005E9A5F988AB1806D8AB9769A6E9881B332
:102B0000806F81BB899880B38D7080BB80E58CBD60
:102B100081E08DBD85E090E00E942D075F9A85E001
:102B200090E00E942D075E985C98E2E0F7E08DE06F
:102B30008E0F94919EBD00000DB407FEFDCF31961F
:102B40008E13F7CF5C9A81E88093640081E08093D4
:102B500065008FEF9FEF9093E4018093E30181E2A2
:102B60008093E70620E087EC92E0B22FB111BFEF2F
:102B7000FC010024B193B193B193B1930394D1F7C5
:102B80001092F5061092F4061092F3061092F206D7
:102B900021E040E869E070E080E090E00E94620798
:102BA00021E040E861E270E080E090E00E9462078E
:102BB00080910C01813019F40E94870B06C082308D
:102BC00021F463E683E60E94780A69E571E0CE01AC
:102BD00001960E94DF1249E050E06AE571E0CE0103
:102BE00001960E94611280910C0190E063E070E018
:102BF0000E94BA194C0180930C015C01AA0CBB1C09
:102C0000A80EB91EAEE66A2E712C8D819E81A81683
:102C1000B90648F489819A81009729F0FC01EA0DF0
:102C2000FB1D208101C020E0CC24C394EE24E3945A
:102C300000E040E050E0B3018CED96E00E94BF0759
:102C40008FEFA81AB80A96E0690E711C20E8621688
:102C50007104D9F681E08816910451F41092CD01E7
:102C60001092CC0160E083E690E00E94570904C016
:102C700092E08916910491F3CE0101960E94991277
:102C800080EE96E00E94AC081092CA011092C90131
:102C900081E08093C9010E945B066093D10170932B
:102CA000D2018093D3019093D4016CE0E62EF12CF5
:102CB00078E1C72ED12CE0E08E2EE0E09E2E5CE085
:102CC000452E0E943207082F10E08091CE0190918E
:102CD000CF010817190709F472C10115110509F48C
:102CE0006EC11093CF010093CE011092D00186EAFD
:102CF0000E944F070034110531F580910C0181309D
:102D000079F48091CC019091CD010196B6010E9499
:102D1000BA199093CD018093CC010E94870B13C008
:102D2000823089F42091CC013091CD01C901019606
:102D3000B7010E94BA198093CC019093CD01682FFE
:102D4000822F0E94780A8091CE019091CF018097C6
:102D500031F580910C01813079F48091CC01909112
:102D6000CD014796B6010E94BA199093CD01809388
:102D7000CC010E94870B13C0823089F42091CC01D2
:102D80003091CD01C9010B96B7010E94BA19809309
:102D9000CC019093CD01682F822F0E94780A8091F8
:102DA000CE019091CF018038910521F481E090E02F
:102DB0000E94D2088091CE019091CF01409721F4DA
:102DC0008FEF9FEF0E94D2088091CE019091CF01AA
:102DD000089709F0E5C080910C01813009F0B2C07C
:102DE0006091CC017091CD01CE0101960E94BE0888
:102DF000BE016F5F7F4F80E00E94360A642D0E9403
:102E0000AE19E92FF0E0EE0FFF1F8F01015F184FA1
:102E1000CE0101960E949912F801659074900E946B
:102E20005C0700E010E0512C6091CC017091CD0165
:102E3000CE0101960E94BE08BE016F5F7F4F852DB7
:102E40000E94360A642D0E94AE19E92FF0E0EE0FC1
:102E5000FF1FCF01815F984F5C01CE0101960E9458
:102E60009912F501859194918615970514F4880FB0
:102E7000991F68EE73E00E941107A090CC01B090FA
:102E8000CD019CE0A916B1041CF46BE070E002C017
:102E900065E170E021E042E1C8010E944C13B501F8
:102EA000CE0101960E94BE08BE016F5F7F4F852D47
:102EB0000E94360A642D0E94AE1961E0892F90E0CD
:102EC0000E945709CE0101960E94991280EE96E069
:102ED0000E94AC088091CB018111FCCFA090CC0165
:102EE000B090CD012CE0A216B1041CF46BE070E0B0
:102EF00002C065E170E020E042E1C8010E944C138D
:102F0000B501CE0101960E94BE08BE016F5F7F4FE2
:102F1000852D0E94360A642D0E94AE1960E0892F2B
:102F200090E00E945709CE0101960E94991280EE0E
:102F300096E00E94AC0853940E5E1F4F87E0581233
:102F400073CF2CC0823061F50E945C07E091CC0108
:102F5000F091CD01EE0FFF1FE15FF84F8591949145
:102F600060ED77E00E94110761E08091CC019091C3
:102F7000CD010E94570980EE96E00E94AC08809136
:102F8000CB018111FCCF60E08091CC019091CD010B
:102F90000E94570980EE96E00E94AC080E945707F5
:102FA0000E945B066093D1017093D2018093D3019C
:102FB0009093D40180EE96E00E94AC0808C00E9475
:102FC0003207811104C01092CF011092CE010E94ED
:102FD0005B060091D1011091D2012091D301309173
:102FE000D401DC01CB01801B910BA20BB30B81310F
:102FF0009742A105B105B8F09091D00181E08927F1
:103000008093D001811102C086EA01C087EA0E9444
:103010004F070E945B066093D1017093D2018093A9
:10302000D3019093D4018114910409F44ACE0E94F3
:10303000000045CEE7EDF1E01382128288EE93E0C6
:10304000A0E0B0E084839583A683B78380E391E01A
:10305000918380838FEF9FEF95878487ECEDF6E077
:10306000138212821186128620E12387908787833C
:10307000108A118A128A138A148A88E491E0918353
:10308000808382E591E095838483178A168A118E66
:10309000108E81E0828F138E848F158E25EB35E0A4
:1030A000309336022093350220E030E8309334022A
:1030B0002093330246983E9A47983F9AE7ECF6E011
:1030C0001382128220E431E03183208327EC32E046
:1030D0003583248320E830E03783268320E430E002
:1030E0003187208795E0938B828B1586148617860F
:1030F00016861386128681E090E0918B808B64E6C1
:1031000071E08FE792E00E94DF1266E671E085E8E9
:1031100092E00E94DF1269E671E08BE892E00E9483
:10312000DF126BE671E081E992E00E94DF126EE649
:1031300071E087E992E00E94DF1260E771E08DE9BB
:1031400092E00E94DF1262E771E083EA92E00E945F
:10315000DF1265E771E089EA92E00E94DF1267E71B
:1031600071E08FEA92E00E94DF126AE771E085EB7E
:1031700092E00E94DF126CE771E08BEB92E00E941C
:10318000DF126FE771E081EC92E00E94DF1261E8EC
:1031900071E087E392E00E94DF1264E871E08DE362
:1031A00092E00E94DF1268E871E083E492E00E94FE
:1031B000DF126BE871E089E492E00E94DF126FE8B1
:1031C00071E08FE492E00E94DF1262E971E085E530
:1031D00092E00E94DF1265E971E08BE592E00E94C7
:1031E000DF1269E971E081E692E00E94DF126CE98A
:1031F00071E087E692E00E94DF1260EA71E08DE6FE
:1032000092E00E94DF1263EA71E083E792E00E949D
:10321000DF1267EA71E089E792E00C94DF12FB01AC
:10322000DC0105900D920020E1F70895FC01059066
:103230000020E9F7809590958E0F9F1F0895F999CA
:10324000FECF92BD81BDF89A992780B50895052ECD
:1032500097FB1EF400940E943E1957FD07D00E9470
:103260007D1907FC03D04EF40C943E1950954095FF
:10327000309521953F4F4F4F5F4F08959095809522
:10328000709561957F4F8F4F9F4F08952F923F927A
:103290004F925F926F927F928F929F92AF92BF9266
:1032A000CF92DF92EF92FF920F931F93CF93DF9312
:1032B000CDB7DEB7CA1BDB0B0FB6F894DEBF0FBE6F
:1032C000CDBF09942A88398848885F846E847D84BC
:1032D0008C849B84AA84B984C884DF80EE80FD80BE
:1032E0000C811B81AA81B981CE0FD11D0FB6F89434
:1032F000DEBF0FBECDBFED010895A1E21A2EAA1BBD
:10330000BB1BFD010DC0AA1FBB1FEE1FFF1FA21795
:10331000B307E407F50720F0A21BB30BE40BF50B92
:10332000661F771F881F991F1A9469F7609570951B
:10333000809590959B01AC01BD01CF010895A29F9E
:10334000B001B39FC001A39F700D811D1124911D79
:10335000B29F700D811D1124911D0895991B79E074
:1033600004C0991F961708F0961B881F7A95C9F715
:103370008095089597FB072E16F4009407D077FDEB
:1033800009D00E94CE1907FC05D03EF49095819596
:103390009F4F0895709561957F4F0895AA1BBB1BA1
:1033A00051E107C0AA1FBB1FA617B70710F0A61B45
:1033B000B70B881F991F5A95A9F780959095BC0166
:1033C000CD010895EE0FFF1F0590F491E02D0994B3
:1033D000CF93DF938230910510F482E090E0E0918A
:1033E0000807F091090720E030E0C0E0D0E0309716
:1033F00011F14081518148175907C0F0481759070A
:1034000061F482819381209719F09B838A832BC07A
:10341000909309078093080726C02115310519F0FC
:103420004217530718F49A01BE01DF01EF01028031
:10343000F381E02DDCCF2115310509F1281B390B73
:103440002430310590F412968D919C91139761155B
:10345000710521F0FB019383828304C090930907D7
:1034600080930807FD01329644C0FD01E20FF31F6F
:1034700081939193225031092D933C933AC020912E
:10348000060730910707232B41F420910F0130915B
:103490001001309307072093060720910D0130910A
:1034A0000E012115310541F42DB73EB740911101B0
:1034B00050911201241B350BE0910607F09107078C
:1034C000E217F307A0F42E1B3F0B2817390778F0FB
:1034D000AC014E5F5F4F2417350748F04E0F5F1F5A
:1034E00050930707409306078193919302C0E0E051
:1034F000F0E0CF01DF91CF9108950F931F93CF9309
:10350000DF93009709F48CC0FC013297138212827A
:1035100000910807109109070115110581F4208118
:103520003181820F931F20910607309107072817DA
:10353000390779F5F0930707E093060771C0D801C2
:1035400040E050E0AE17BF0750F412962D913C9129
:103550001397AD012115310509F1D901F3CF9D0173
:10356000DA013383228360817181860F971F82176E
:10357000930769F4EC0128813981260F371F2E5FEC
:103580003F4F318320838A819B8193838283452BA4
:1035900029F4F0930907E093080742C01396FC93BF
:1035A000EE931297ED01499159919E01240F351F19
:1035B000E217F30771F480819181840F951F0296C1
:1035C00011969C938E938281938113969C938E93F4
:1035D0001297E0E0F0E0D80112968D919C9113973C
:1035E000009719F0F8018C01F6CF8D919C9198010C
:1035F0002E5F3F4F820F931F2091060730910707E0
:103600002817390769F4309729F4109209071092A6
:10361000080702C01382128210930707009306075F
:10362000DF91CF911F910F910895A0E0B0E0EBE101
:10363000FBE10C944A19EC01009721F4CB010E94A4
:10364000E819B8C0FC01E60FF71F9C0122503109B0
:10365000E217F30708F4ACC0D9010D911C91119742
:1036600006171707B0F00530110508F49FC0C80110
:1036700004978617970708F499C002501109061B92
:10368000170B019311936D937C93CF010E947D1AC8
:103690008DC05B01A01AB10A4C01800E911EA09151
:1036A0000807B091090740E050E0E12CF12C109799
:1036B00009F44AC0A815B905D1F56D907C90119711
:1036C000630182E0C80ED11CCA14DB0480F1A3019F
:1036D0004A195B096A0182E0C80ED11C1296BC909F
:1036E00012971396AC91B5E0CB16D10440F0B2829C
:1036F000A38351834083D9016D937C930AC00E5FED
:103700001F4FC301800F911FF90191838083EB2D1F
:10371000FA2FE114F10431F0D7011396FC93EE93E4
:10372000129744C0F0930907E09308073FC08D91BA
:103730009C9111974817590708F4AC017D01129626
:103740000D90BC91A02DB3CF8091060790910707F3
:1037500088159905E1F446175707C8F480910D01C3
:1037600090910E01009741F48DB79EB740911101E1
:1037700050911201841B950BE817F907C8F4F093D8
:103780000707E0930607F901718360830FC0CB013F
:103790000E94E8197C01009759F0A801BE010E941F
:1037A000E41BCE010E947D1AC70104C0CE0102C0F5
:1037B00080E090E0CDB7DEB7EEE00C94661981E0D2
:1037C00090E0F8940C94FD1BFB01DC0102C0019019
:1037D0000D9241505040D8F70895FB01DC018D91C6
:1037E000019080190110D9F3990B0895FB01DC01B8
:1037F00001900D920020E1F7089513E0C5E9D3E0B0
:1038000004C0FE010E94E2192196C639D107C9F70A
:04381000F894FFCF5A
:10381400FFFFFFFF00E10000000000000200000ABB
:1038240007800000020102020102000202010202FA
:10383400020702090400C1808100000000000000AA
:10384400FE0D6B0E1F0E020F200F140E0000000061
:103854006704D30D000000006108D30D6D14FCFF54
:103864000000AB144D006D00200041654E4B4559DE
:103874004D414E004300446200440045620045004F
:103884004600476200470041620041004262004234
:1038940000446F00446F2300526500526523004DBD
:1038A400690046610046612300536F00536F230093
:0A38B4004C61004C612300536900D1
:00000001FF
