:100000000C94BF030C94E7030C94E7030C94E703F0
:100010000C94E7030C94E7030C94E7030C94E703B8
:100020000C94E7030C94E7030C9434130C94A6137C
:100030000C94E7030C94E7030C94E7030C94E70398
:100040000C94E7030C94E7030C94E7030C94E70388
:100050000C94E7030C94E7030C94E7030C94F41955
:100060000C94E7030C94E7030C94E7030C94E70368
:100070000C94E7030C94E7030C94E7030C94E70358
:100080000C94F2150C94E7030C94E7030C94E7032B
:100090000C94E7030C94E7030C94E7030C94E70338
:1000A0000C94E7030C94E7030C94E70328632920DE
:1000B0003230313720006D617873636F7264614054
:1000C000676D61696C2E636F6D0053636F7264615D
:1000D0006D61676C696120004D6178200020312ED0
:1000E00035200042617373426F79006D006D004DE1
:1000F000004D006D696E004D616A00202D20003AB0
:1001000020004B657920006D004D006D696E004D3B
:10011000616A00202D20003A20004B6579200020E4
:100120002D20004B65793A200000000000003E5B66
:100130004F5B3E3E6B4F6B3E1C3E7C3E1C183C7E34
:100140003C181C577D571C1C5E7F5E1C00183C1819
:1001500000FFE7C3E7FF0018241800FFE7DBE7FF15
:1001600030483A060E2629792926407F05050740A2
:100170007F05253F5A3CE73C5A7F3E1C1C08081C63
:100180001C3E7F14227F22145F5F005F5F06097FA1
:10019000017F006689956A606060606094A2FFA23A
:1001A0009408047E040810207E201008082A1C08E9
:1001B000081C2A08081E101010100C1E0C1E0C30F3
:1001C000383E3830060E3E0E0600000000000000EB
:1001D0005F00000007000700147F147F14242A7FAB
:1001E0002A12231308646236495620500008070378
:1001F00000001C2241000041221C002A1C7F1C2AF6
:1002000008083E0808008070300008080808080048
:100210000060600020100804023E5149453E004243
:100220007F400072494949462141494D3318141213
:100230007F1027454545393C4A494931412111093B
:10024000073649494936464949291E00001400002D
:100250000040340000000814224114141414140047
:100260004122140802015909063E415D594E7C1293
:1002700011127C7F494949363E414141227F41412B
:10028000413E7F494949417F090909013E414151A8
:10029000737F0808087F00417F41002040413F01F3
:1002A0007F081422417F404040407F021C027F7F34
:1002B0000408107F3E4141413E7F090909063E4145
:1002C00051215E7F09192946264949493203017F98
:1002D00001033F4040403F1F2040201F3F40384027
:1002E0003F631408146303047804036159494D43C0
:1002F000007F4141410204081020004141417F0438
:10030000020102044040404040000307080020541E
:100310005478407F2844443838444444283844447E
:10032000287F385454541800087E090218A4A49C4D
:10033000787F0804047800447D40002040403D0060
:100340007F1028440000417F40007C047804787CC2
:10035000080404783844444438FC18242418182429
:100360002418FC7C08040408485454542404043F12
:1003700044243C4040207C1C2040201C3C40304019
:100380003C44281028444C9090907C4464544C4445
:1003900000083641000000770000004136080002E6
:1003A000010204023C2623263C1EA1A161123A4010
:1003B00040207A3854545559215555794121545487
:1003C0007841215554784020545579400C1E527282
:1003D000123955555559395454545939555454585E
:1003E0000000457C410002457D420001457C40F013
:1003F000292429F0F0282528F07C54554500205464
:10040000547C547C0A097F49324949493232484870
:100410004832324A4848303A4141217A3A424020F3
:1004200078009DA0A07D39444444393D4040403D82
:100430003C24FF2424487E4943662B2FFC2F2BFFAE
:100440000929F620C0887E09032054547941000010
:10045000447D413048484A32384040227A007A0A86
:100460000A727D0D19317D2629292F28262929294F
:100470002630484D40203808080808080808083881
:100480002F10C8ACBA2F102834FA00007B000008E7
:10049000142A142222142A14089500220095AA0076
:1004A0005500AAAA55AA55AA000000FF0010101076
:1004B000FF00141414FF001010FF00FF1010F010C4
:1004C000F0141414FC001414F700FF0000FF00FFE8
:1004D0001414F404FC141417101F10101F101F1410
:1004E00014141F00101010F0000000001F10101056
:1004F000101F10101010F010000000FF101010104E
:100500001010101010FF10000000FF140000FF007A
:10051000FF00001F10170000FC04F414141710173C
:100520001414F404F40000FF00F714141414141449
:1005300014F700F7141414171410101F101F1414BC
:1005400014F4141010F010F000001F101F00000031
:100550001F14000000FC140000F010F01010FF1039
:10056000FF141414FF141010101F00000000F010EE
:10057000FFFFFFFFFFF0F0F0F0F0FFFFFF000000D3
:100580000000FFFF0F0F0F0F0F38444438447C2A40
:100590002A3E147E02020606027E027E026355494E
:1005A00041633844443C04407E201E2006027E0203
:1005B0000299A5E7A5991C2A492A1C4C7201724C84
:1005C000304A4D4D303048784830BC625A463D3E46
:1005D000494949007E0101017E2A2A2A2A2A4444E7
:1005E0005F444440514A444040444A51400000FF67
:1005F0000103E080FF000008086B6B083612362408
:1006000036060F090F060000181800000010100031
:100610003040FF0101001F01011E00191D171200CB
:100620003C3C3C3C000000000000B00000A170E138
:1006300050964F26900F1D070C009669004AE44A19
:100640000048444000806810000F99FB8F9DBDBB9F
:10065000FB77D4D4DF1F1A1AFE7F5D5DFF805A003E
:1006600000A0A4AA0010BA3400FF5953F3FF9B9BCB
:100670009EFFB9B996FF9595D19FF4940FFC295F21
:1006800091FF1838F8FF9294FFFF95D5F7BFB5DDBD
:10069000D7F18F81F1F788C8F779C6467909FD9BB4
:1006A000090196F800828182805071620077565667
:1006B0000076763700A2B7730107720600782750DC
:1006C0000073347400775176007F55F7004771103E
:1006D00000324772007364730015A275006167945D
:1006E00000009F6060F4F2F6F2080B0002020201C3
:1006F00000090400000102020000052400100105A9
:1007000024010101042402060524060001070581D5
:100710000310004009040100020A0000000705025E
:100720000240000007058302400000040309041290
:10073000010002EF02014041233680000101020363
:100740000141726475696E6F204C4C4300417264C4
:1007500075626F7900D5F08D14A1C881CFD9F1AF42
:10076000200006011501260137014A015D017201D1
:1007700088019F01B801D201EE016C1FE71A112414
:100780001FBECFEFDAE0DEBFCDBF11E0A0E0B1E0E9
:10079000EEECF9E402C005900D92AA3BB107D9F73F
:1007A00027E0AAEBB1E001C01D92AA31B207E1F740
:1007B00013E0CEEBD3E004C02197FE010E94CF22CC
:1007C000CD3BD107C9F70E94001B0C94DA240C948E
:1007D00000008091BC0108950895089580E090E0A4
:1007E00008958FB18095807F669B88601C9B846094
:1007F00008958EBD00000DB407FEFDCF0895109240
:10080000BC013E983F9808953E9A3F9A81E08093BC
:10081000BC010895FC01E40FF11DAF011E161F0677
:10082000C4F580389105ACF597FF02C080E090E0F8
:100830004138510514F040E850E0481BFB0177FDBA
:10084000379633E0F595E7953A95E1F7F695FE2F63
:10085000EE27F795E795E80FF91FEC52FD4F67700B
:10086000772781E090E001C0880F6A95EAF7382F7A
:10087000222341F0213069F4415058F08081832BCC
:100880008193FACF8095415020F0908198239193E5
:10089000FACF0895E4EDF2E080E0A0E0B8E0008057
:1008A0000EBC8111012C1197A0FDFDCF0192B9F76B
:1008B0000DB4089580389105B8F460347105A0F442
:1008C00090E121E061FD24E060FD220F62FD2295B0
:1008D000687F969FD0011124A80FAC52BD4F8C9118
:1008E000822B40FF82278C9308952F923F924F9244
:1008F0005F926F927F928F929F92AF92BF92CF92B0
:10090000DF92EF92FF920F931F93CF93DF93CDB7B8
:10091000DEB728970FB6F894DEBF0FBECDBF6038A4
:1009200071050CF072C0403451050CF06EC0CB0163
:1009300035E0C39E800D911D1124181619060CF088
:1009400064C0AC2CB12CCA01E8E0CE9E800D911D94
:100950001124181619060CF058C0EA8209835E8328
:100960004D83F5E02F9F9001112478876F83C90193
:10097000875D9E4F3C01512CF3014490F5E05F12DE
:1009800001C0412C0D811E8188E0282E8F81988521
:100990008A0D9B1D9C838B8340FE02C0398001C061
:1009A0003A80311004C09A81E9819E17D9F0EF8016
:1009B000F8846801CA0CDB1C8B819C81E816F9065F
:1009C00089F048018C149D0449F0432DB401C701FE
:1009D0000E945A049FEF891A990AF4CFEFEFEE1A9A
:1009E000FE0AEACF46942A940A0D1B1D2110D4CF8B
:1009F00053948F8198858A0D9B1D98878F83F3016F
:100A000031963F01F6E05F12B7CF28960FB6F89403
:100A1000DEBF0FBECDBFDF91CF911F910F91FF9031
:100A2000EF90DF90CF90BF90AF909F908F907F908E
:100A30006F905F904F903F902F900895CF92EF92DC
:100A40000F93CF93DF93EC016A3069F42D89898984
:100A50009A8938E0239F800D911D11249A8B898BF0
:100A6000188A1F862EC06D3061F1262F49895A8958
:100A70006F857889CD88EC880B890E9475042D8953
:100A8000422F50E08F85988936E0239F800D911D7D
:100A90001124988B8F872E89222399F06AEF6403A3
:100AA0009001659F300D112420583F4F28173907BA
:100AB00044F4E881F9810190F081E02D6AE0CE01F3
:100AC000099581E090E0DF91CF910F91EF90CF9069
:100AD00008952F923F924F925F926F927F928F92E2
:100AE0009F92AF92BF92CF92DF92EF92FF920F93BD
:100AF0001F93CF93DF93CDB7DEB72A970FB6F89445
:100B0000DEBF0FBECDBF6C01F62E8336910519F006
:100B100080E090E0FAC041E06FE270E087E090E0B2
:100B20000E945A0441E067E270E087E090E00E9492
:100B30005A0441E06BE270E08BE090E00E945A04BE
:100B400041E06BE270E083E090E00E945A044424AC
:100B50004394512C00E010E084E090E09A83898374
:100B600038EF632E77247A944DEFE42EFF24FA9425
:100B700057E0252E312C0F5F1F4F82E0480E511C8D
:100B8000E40CF51C480197E0890E911C41E0C980F6
:100B9000DA802BE2C20ED11CB601C4010E945A04B5
:100BA0005101A01AB10A41E0B601C5010E945A04E0
:100BB00041E08BE2C82ED12C89819A81C81AD90ACA
:100BC000B601C4010E945A0441E0B601C5010E9469
:100BD0005A0468019BE2C90ED11C41E0B601A9800C
:100BE000BA8027E0A20EB11CC5010E945A0441E060
:100BF000B601610189819A81C81AD90AC6010E9489
:100C00005A049BE2892E912C801A910A41E0B4018A
:100C1000C5010E945A0441E0B401C6010E945A0471
:100C200029813A810217130774F4F7FCA4CF2981B4
:100C30003A81215031093A83298332E0630E711CD5
:100C4000E60CF71C98CF83E090E09A83898320E03C
:100C500046E069E270E089819A810E94EF1729815C
:100C60003A812F5F3F4F3A8329832730310579F747
:100C700021E041E068E270E08DE090E00E943819E8
:100C800021E041E06EE270E08DE090E00E943819D2
:100C900086E290E09A83898321E040E869817A8145
:100CA00080E090E00E940A0429813A812B5F3F4F47
:100CB0003A8329832F33310579F721E044E167E254
:100CC00070E080E090E00E94EF1721E044E167E2ED
:100CD00070E082E090E02A960FB6F894DEBF0FBE77
:100CE000CDBFDF91CF911F910F91FF90EF90DF90DB
:100CF000CF90BF90AF909F908F907F906F905F90BC
:100D00004F903F902F900C94EF17292F30E03A83AB
:100D100029832C153D0544F48F5FE82FF0E0EB5D4F
:100D2000FE4F2081920FF1CF90E0049667E070E0D3
:100D30000E94A7229A8789878AE029853A85829F1F
:100D40001001839F300C11243DE0230E311C2985B6
:100D50003A85B901330F880B990B0E94702020E06F
:100D600030E040E250E40E94AB204B015C019B016B
:100D7000AC0160E070E08CE692E40E94F8210E94F1
:100D800065222B013C017E836D83C10103979C8307
:100D90008B8391012F5F3F4F38872F838C018F8189
:100DA00098850817190751F02F2D44E06D817E8139
:100DB000C8010E94EF170F5F1F4FF1CF9FEF491A35
:100DC000590AEF2C01E010E021E041E0B201C1013D
:100DD0000E94B61822E041E0B2018B819C810E9402
:100DE000B61829813A81C216D30684F4A50194016C
:100DF00060E070E080E792E40E94F8210E946522A2
:100E00002F2D41E0C10104960E943819F11016C03F
:100E1000398530FF13C0A501940160E070E084E7DC
:100E200092E40E94F8210E9465226034710530F43A
:100E300021E040E880E090E00E940A0489859A85DC
:100E400007969A87898796E4290E311C29853A8569
:100E50002B3031050CF47BCF2A960FB6F894DEBF09
:100E60000FBECDBFDF91CF911F910F91FF90EF90FB
:100E7000DF90CF90BF90AF909F908F907F906F90BA
:100E80005F904F903F902F9008952F923F924F92F6
:100E90005F926F927F928F929F92AF92BF92CF920A
:100EA000DF92EF92FF920F931F93CF93DF93CDB713
:100EB000DEB7A1970FB6F894DEBF0FBECDBF20916D
:100EC000BA013091BB01820F931F8730910514F056
:100ED00086E090E097FF02C080E090E09093BB0135
:100EE0008093BA0100E010E020E045E06BE370E0A1
:100EF000C8010E94EF170F5F1F4F00381105A1F7BF
:100F000088E1E82EF12C00E010E09CE3292E312C42
:100F10002AE0422E512C612C712CF092E206E092D4
:100F2000E106F092E006E092DF063092E4062092BD
:100F3000E3062091BA013091BB01200F311F2F5FD2
:100F40003F4F4901330FAA08BB08B7FE20C06DE22E
:100F500084ED96E00E94C71022273327A9012819A3
:100F600039094A095B0919A2CE0181966C01CA01AF
:100F7000B901A30192010E94C721605DF60162934D
:100F80006F01211531054105510589F715C0A501EE
:100F9000940119A2CE0181966C01CA01B901A30185
:100FA00092010E94C721605DF60162936F012115D5
:100FB00031054105510589F7C6010E944D180F5FA3
:100FC0001F4FF1E1EF0EF11C0630110509F0A5CF1E
:100FD0008091BA019091BB01892B11F421E001C0ED
:100FE00020E043E166E270E080E190E00E94EF17CC
:100FF000A1960FB6F894DEBF0FBECDBFDF91CF91A3
:101000001F910F91FF90EF90DF90CF90BF90AF9026
:101010009F908F907F906F905F904F903F902F9018
:1010200008954F925F926F927F928F929F92AF92AC
:10103000BF92CF92DF92EF92FF920F931F93CF93C5
:10104000DF93EC01562E8336910509F050C003E181
:1010500011E0C6E2D0E0EE24E394F12C46E0D42E79
:1010600021E04AE6BE0182E190E00E940A04F0928B
:10107000E206E092E106F092E006E092DF06CE01A1
:1010800002979093E4068093E306F80161918F0143
:101090002D2D6203B001112464577D4F84ED96E03D
:1010A0000E94E4152696CE33D105D1F6C2E1D0E0F8
:1010B00021E043E166E270E0CE010E94EF17619605
:1010C000C938D105A9F780E090E0DF91CF911F9159
:1010D0000F91FF90EF90DF90CF90BF90AF909F90D7
:1010E0008F907F906F905F904F900C94450783E1B5
:1010F000E82E81E0F82E06E210E09CE0692E712CCB
:1011000021E1422E5E018CE0A80EB11C4E01EBE005
:101110008E0E911CF70121917F014091BA015091EF
:10112000BB01822F840FE6E0E80F90E0022E000C56
:10113000330BC817D9072CF06E2F70E06C177D07A2
:101140005CF4A816B9062CF08E2F90E0881699064C
:101150001CF0C217D30729F5420F531FCE01841B81
:10116000950B0C96B3010E94A7226C01892B21F4E8
:10117000C217D307B1F403C0C217D30739F4252D22
:1011800042E0B80189E090E00E9438194C9CC0010F
:101190004D9C900D1124252D42E0B80109960E9426
:1011A00038195520B9F00A5F1F4F0E33110509F0A9
:1011B000B1CFDF91CF911F910F91FF90EF90DF9012
:1011C000CF90BF90AF909F908F907F906F905F90E7
:1011D0004F90089521E04CE6B80182E190E00E9432
:1011E0000A04E1CFAF92BF92CF92DF92EF92FF92CB
:1011F0000F931F93CF93DF93CDB7DEB762970FB6F0
:10120000F894DEBF0FBECDBF082FF62E81E090E030
:101210009093FA068093F9061092FC061092FB0652
:1012200083E291E00E947D176EE571E0CE010796A2
:101230000E9443178091E2019091E3014CE0C42E9B
:10124000D12CB6010E94A72216E0189FB001199F69
:10125000700D112464577D4FCE0101960E943A17FC
:101260009E01295F3F4F42E050E0BE016F5F7F4F1C
:10127000CE010D960E943E1ABE01635F7F4F8AEE3B
:1012800096E00E94E415CE010D960E94FD16CE0157
:1012900001960E94FD16CE0107960E94FD168FE171
:1012A00091E00E947D176EE571E0CE0107960E94E5
:1012B00043178091E2019091E301B6010E94A722B9
:1012C000189FB001199F700D11246C5B7D4FCE01EA
:1012D00001960E943A179E01295F3F4F43E050E07C
:1012E000BE016F5F7F4FCE010D960E943E1ABE0178
:1012F000635F7F4F8AEE96E00E94E415CE010D9663
:101300000E94FD16CE0101960E94FD16CE010796A1
:101310000E94FD160336D9F58CE8E82E82E0F82EFF
:1013200000E010E096E0C92ED12C24E1A22E3AE094
:10133000B32EC801B6010E94A722A89E9001A99EC3
:10134000300D1124C9010A969093FA068093F9068C
:10135000B69EC001B79E900D11240D969093FC0689
:101360008093FB06B7018AEE96E00E94E4150F5FBA
:101370001F4F26E0E20EF11C0C301105D1F601E002
:101380002BE044E16BE070E087E090E026C0802F26
:10139000612F0E949B222AE0829FB0011124655F89
:1013A0007F4F24E1929FC001112400E02BE044E133
:1013B00007960E9418188F2D612F0E949B222AE009
:1013C000829FB0011124655F7F4F24E1929FC0018D
:1013D000112401E02BE044E107960E941818629660
:1013E0000FB6F894DEBF0FBECDBFDF91CF911F9136
:1013F0000F91FF90EF90DF90CF90BF90AF90089546
:10140000EF92FF920F931F93CF93DF93CDB7DEB789
:10141000A4970FB6F894DEBF0FBECDBF6FE571E0A5
:10142000CE014F960E94431781E090E09093FA0618
:101430008093F9061092FC061092FB068AE191E077
:101440000E947D178091E2019091E3010B964797EE
:1014500018F062E671E002C060E671E0CE0101962C
:101460000E944317CE0101960E949817811103C074
:101470008BE091E002C08FE091E00E947D17CE01E9
:1014800001960E94FD1687E191E00E947D176EE5AE
:1014900071E0CE0107960E9443178091E20190917E
:1014A000E3012CE0E22EF12CB7010E94A72216E006
:1014B000189FB001199F700D112464577D4FCE0104
:1014C00001960E943A179E01295F3F4F42E050E08B
:1014D000BE016F5F7F4FCE010D960E943E1ABE0186
:1014E000635F7F4F8AEE96E00E94E415CE010D9671
:1014F0000E94FD16CE0101960E94FD16CE010796B0
:101500000E94FD1683E191E00E947D176EE571E077
:10151000CE0107960E9443178091E2019091E3016A
:10152000B7010E94A722189FB001199F700D1124C6
:101530006C5B7D4FCE0101960E943A179E01295F98
:101540003F4F43E050E0BE016F5F7F4FCE010D96ED
:101550000E943E1ABE01635F7F4F8AEE96E00E94B2
:10156000E415CE010D960E94FD16CE0101960E9453
:10157000FD16CE0107960E94FD1610E03CE0F32E0A
:1015800006E06EE571E0CE0143960E94431769E0E4
:1015900071E0CE0107960E940217BE01695F7F4F7E
:1015A000812F0E94A9176F2D0E949B22099FB001D5
:1015B000112464577D4FCE010D960E943A179E016B
:1015C0002D5E3F4F43E050E0BE01635F7F4FCE0191
:1015D00049960E943E1ABE01615E7F4FCE01019680
:1015E0000E943A17BE01675E7F4FCE0101960E94AE
:1015F0005F18BC01CE014F960E94E616CE010196FF
:101600000E94FD16CE0149960E94FD16CE010D9650
:101610000E94FD16CE0107960E94FD16CE0143964C
:101620000E94FD161F5F173009F0ABCF81E090E0FC
:101630009093FA068093F9068DE090E09093FC0673
:101640008093FB06BE01615E7F4F8AEE96E00E94AA
:10165000E4156FE571E0CE014F960E94CF1610E0C1
:101660008CE0F82E06E06EE571E0CE0143960E9414
:10167000431767E071E0CE0107960E940217BE0192
:10168000695F7F4F812F0E94A9176F2D0E949B22B7
:10169000099FB001112464577D4FCE010D960E9421
:1016A0003A179E012D5E3F4F43E050E0BE01635F5D
:1016B0007F4FCE0149960E943E1ABE01615E7F4F68
:1016C000CE0101960E943A17BE01675E7F4FCE01A0
:1016D00001960E945F18BC01CE014F960E94E6164B
:1016E000CE0101960E94FD16CE0149960E94FD167C
:1016F000CE010D960E94FD16CE0107960E94FD16A2
:10170000CE0143960E94FD161F5F173009F0ABCF44
:1017100081E090E09093FA068093F90687E190E0EB
:101720009093FC068093FB06BE01615E7F4F8AEEBC
:1017300096E00E94E415CE014F960E94FD16A496F5
:101740000FB6F894DEBF0FBECDBFDF91CF911F91D2
:101750000F91FF90EF900895EF92FF920F931F93D8
:10176000CF93DF93CDB7DEB7AA970FB6F894DEBF5D
:101770000FBECDBF6FE571E0CE014F960E944317BB
:101780006FE571E0CE0185960E94431781E090E0FD
:101790009093FA068093F9061092FC061092FB06CD
:1017A00082E091E00E947D178091E2019091E30137
:1017B0000B96479718F062E671E002C060E671E0B0
:1017C000CE0101960E944317CE0101960E94981700
:1017D000811103C083EF90E002C087EF90E00E9488
:1017E0007D17CE0101960E94FD168FEF90E00E94BA
:1017F0007D176EE571E0CE0107960E944317809138
:10180000E2019091E3012CE0E22EF12CB7010E945D
:10181000A72216E0189FB001199F700D112464577C
:101820007D4FCE0101960E943A179E01295F3F4FDE
:1018300042E050E0BE016F5F7F4FCE010D960E94E7
:101840003E1ABE01635F7F4F8AEE96E00E94E41568
:10185000CE010D960E94FD16CE0101960E94FD1646
:10186000CE0107960E94FD168BEF90E00E947D1737
:101870006EE571E0CE0107960E9443178091E20168
:101880009091E301B7010E94A722189FB001199F10
:10189000700D11246C5B7D4FCE0101960E943A17AA
:1018A0009E01295F3F4F43E050E0BE016F5F7F4FD5
:1018B000CE010D960E943E1ABE01635F7F4F8AEEF5
:1018C00096E00E94E415CE010D960E94FD16CE0111
:1018D00001960E94FD16CE0107960E94FD1600E0BB
:1018E00010E020E04EE06AE270E0C8010E94EF17CD
:1018F0000F5F1F4F00381105A1F710E09CE0F92E93
:1019000006E061EF70E0CE0107960E940217BE016B
:10191000695F7F4F812F0E94A917E82EBE01615E8B
:101920007F4FCE0101960E943A178E2D6F2D0E9497
:101930009B22099FB00111246C5B7D4FCE01019663
:101940000E945F180E949218BC01CE014F960E941F
:10195000E616CE0101960E94FD16CE0107960E9462
:10196000FD166EE571E0CE0143960E9443176FEEBF
:1019700070E0CE0107960E940217BE01695F7F4F9B
:10198000812F0E94A9176F2D0E949B22099FB001F1
:10199000112464577D4FCE010D960E943A179E0187
:1019A0002D5E3F4F43E050E0BE01635F7F4FCE01AD
:1019B00049960E943E1ABE016B5D7F4FCE01019693
:1019C0000E943A17BE01675E7F4FCE0101960E94CA
:1019D0005F18BC01CE0185960E94E616CE010196E5
:1019E0000E94FD16CE0149960E94FD16CE010D966D
:1019F0000E94FD16CE0107960E94FD16CE01439669
:101A00000E94FD161F5F173009F07BCF01E010E048
:101A10001093E2060093E1061093E0060093DF06C0
:101A20008AE290E09093E4068093E306BE01615E53
:101A30007F4F84ED96E00E94E4151093FA06009320
:101A4000F9068DE090E09093FC068093FB06BE01C2
:101A50006B5D7F4F8AEE96E00E94E4156FE571E0C2
:101A6000CE014F960E94CF166FE571E0CE018596AC
:101A70000E94CF1610E08CE0F82E06E06DEE70E0CC
:101A8000CE0107960E940217BE01695F7F4F812F2A
:101A90000E94A917E82EBE01615E7F4FCE0101961C
:101AA0000E943A178E2D6F2D0E949B22099FB00134
:101AB00011246C5B7D4FCE0101960E945F180E943D
:101AC0009218BC01CE014F960E94E616CE010196F7
:101AD0000E94FD16CE0107960E94FD166EE571E08C
:101AE000CE0143960E9443176BEE70E0CE0107963D
:101AF0000E940217BE01695F7F4F812F0E94A917C4
:101B00006F2D0E949B22099FB001112464577D4FC5
:101B1000CE010D960E943A179E012D5E3F4F43E085
:101B200050E0BE01635F7F4FCE0149960E943E1A8E
:101B3000BE016B5D7F4FCE0101960E943A17BE0138
:101B4000675E7F4FCE0101960E945F18BC01CE01F7
:101B500085960E94E616CE0101960E94FD16CE01E2
:101B600049960E94FD16CE010D960E94FD16CE01EB
:101B700007960E94FD16CE0143960E94FD161F5F38
:101B8000173009F07BCF01E010E01093FA060093C4
:101B9000F90687E190E09093FC068093FB06BE0176
:101BA0006B5D7F4F8AEE96E00E94E4151093E2068B
:101BB0000093E1061093E0060093DF0684E390E0D3
:101BC0009093E4068093E306BE01615E7F4F84ED4F
:101BD00096E00E94E415CE0185960E94FD16CE0186
:101BE0004F960E94FD16AA960FB6F894DEBF0FBE60
:101BF000CDBFDF91CF911F910F91FF90EF9008958E
:101C00008F929F92AF92BF92CF92EF920F931F93BA
:101C1000CF93DF9300D000D000D0CDB7DEB7182F20
:101C20006FE571E0CE0101960E94431764E671E012
:101C3000CE0101960E94CF1620910C01812F90E0D9
:101C4000820F911D65E070E00E94A722982F80937B
:101C50000C0180E0E4EDF2E081118FEF002481932C
:101C60008193819381930394D1F71092FC06109293
:101C7000FB061092FA061092F906943009F464C03B
:101C80008EE6882E912CA12CB12C80910C0195010F
:101C900043E0849F200D311D1124C9012D813E8117
:101CA0008217930750F429813A812115310529F0D3
:101CB000F901E80FF91F208101C020E0CC24C39472
:101CC000EE24E39400E040E050E0B4018AEE96E0B8
:101CD0000E9475048FEFA81AB80A26E0820E911CA4
:101CE00033E0A316B10489F621E040E869E070E032
:101CF00080E090E00E940A0480910C01833041F062
:101D000021E040E861E270E080E090E00E940A0497
:101D100089E690E09093E2068093E1069093E006D6
:101D20008093DF0685E090E09093E4068093E306DD
:101D30008091D301811103C08EE591E002C080E65D
:101D400091E00E944D1811C001E020E440E860E0FD
:101D500070E080E090E00E9418182CE34CE762E00D
:101D600070E082E090E00E94181880910C018111CF
:101D700007C01092E3011092E2010E94AC0B77C001
:101D8000813039F41092E3011092E2010E94000ABE
:101D90000AC0823071F41092E3011092E20163E60E
:101DA00083E60E94F20860E083E690E00E9411085A
:101DB0005EC0833071F41092E3011092E20163E699
:101DC00083E60E94F20860E083E690E00E946905E5
:101DD0004EC0843009F04BC008E010E01093FA06C2
:101DE0000093F9068AE090E09093FC068093FB064E
:101DF00082E08093FF0683EE90E00E947D17BB2473
:101E0000B394B092FF068DED90E00E947D17109381
:101E1000FA060093F9068EE190E09093FC06809319
:101E2000FB0688ED90E00E947D178AEC90E00E940E
:101E30007D171093FA060093F90688E290E09093DC
:101E4000FC068093FB0686EB90E00E947D171093C2
:101E5000FA060093F90682E390E09093FC068093E3
:101E6000FB068CEA90E00E947D17B092FF06CE013F
:101E700001960E94FD1626960FB6F894DEBF0FBE9F
:101E8000CDBFDF91CF911F910F91EF90CF90BF9079
:101E9000AF909F908F9008954091CA015091CB01CF
:101EA0002091C8013091C90142175307B4F49091B1
:101EB000E8009570E1F39091E80092FD19C08093DD
:101EC000F1008091CA019091CB0101968F739927FF
:101ED000892B19F48EEF8093E8008091CA019091CC
:101EE000CB0101969093CB018093CA0181E00895C4
:101EF00080E00895DF92EF92FF920F931F93CF93AC
:101F0000DF93D82EF92EE42E062F10E0C80101969B
:101F1000880F0E944C0F83E00E944C0FCD2DDF2DC7
:101F20000C0F1D1FC017D10789F0E7FE03C0FE018B
:101F3000849101C088810E944C0FF82E80E00E949D
:101F40004C0F8F2121968111EDCF01C081E0DF91EF
:101F5000CF911F910F91FF90EF90DF900895DF9246
:101F6000EF92FF920F931F93CF93DF93D82E8A01A6
:101F70007B01E40EF51EEB01CE15DF0571F0D7FEF7
:101F800003C0FE01849101C088810E944C0F2196FC
:101F90008111F2CF8FEF9FEF01C0C801DF91CF9188
:101FA0001F910F91FF90EF90DF900895615030F0F6
:101FB0002091F100FC0120830196F8CF289884E657
:101FC0008093E0010895CF92DF92EF92FF920F93FA
:101FD0001F93CF93DF936C017A018B01C0E0D0E0B7
:101FE000CE15DF0581F0D8016D918D01D601ED91FF
:101FF000FC910190F081E02DC6010995892B11F02B
:102000002196EECF7E01C701DF91CF911F910F91F5
:10201000FF90EF90DF90CF900895CF93DF931F92C2
:10202000CDB7DEB76983DC01ED91FC910280F381CD
:10203000E02D41E050E0BE016F5F7F4F09950F90AA
:10204000DF91CF91089583E08093E9008091F200C1
:10205000882319F08AE38093E8000895FC018485C1
:10206000958597FD0BC09FB7F89482E08093E900B7
:102070008091F2009FBF90E0019608959FB7F89479
:1020800082E08093E9008091F2009FBF90E0089584
:102090004F925F926F927F928F929F92AF92BF9278
:1020A000CF92DF92EF92FF920F931F93CF93DF9324
:1020B0006C013B01102F38E0832E912C7A01FF2414
:1020C000270193E0559447949A95E1F7CA018770E8
:1020D0009927892B41F5D6011796CD91DC91189758
:1020E000C3019927BE010E94A7224C9EF0014D9E7C
:1020F000F00D5C9EF00D11249927D60115964D9197
:102100005C9116978E0F9F1FFA01E80FF91F1111AE
:1021100006C0C22FC09520812C23208327C0C081F8
:10212000C22BC08323C0C22FD0E04770A42EB12C95
:10213000720183E0EE0CFF1C8A95E1F79E0101C05D
:10214000220F4A95EAF7012FA701B301C6010E94A9
:102150004810C4018A199B0902C0D595C7958A9574
:10216000E2F72C2FA701485F5F4FA8CFDF91CF91F7
:102170001F910F91FF90EF90DF90CF90BF90AF90A5
:102180009F908F907F906F905F904F9008955F9297
:102190006F927F928F929F92AF92BF92CF92DF9277
:1021A000EF92FF920F931F93CF93DF93EC016A306E
:1021B00061F48D859E859C878B872C898F85988976
:1021C000820F911D988B8F8777C0CB84DC84693018
:1021D00031F489E0C80ED11CDC86CB866DC09DEF42
:1021E000C9169FEFD90654F48B8990E004962B858D
:1021F0003C85820F931F9C878B875EC08F8198855B
:10220000C816D9068CF7EF84F8888DEFE8168FEFA3
:10221000F80654F389859A85E816F9062CF760329A
:1022200008F46FE780EE860F9FE9960F9A3118F455
:102230009FEFE91AF90A8C3011F08B3119F49FEFF6
:10224000E91AF90A869594E0899F50011124360114
:1022500084E0680E711C4601162F1170F401EC1910
:10226000FD09EA0DFB1DE75DF94F8491111103C0D3
:102270008F70582E04C0582E52948FE058228C81B3
:10228000882361F001E089899A89892B09F000E0AF
:102290002FE0A701B401CE010E9448100989252D25
:1022A000A701B401CE010E9448109FEF891A990A34
:1022B0006814790499F698CF81E090E0DF91CF918E
:1022C0001F910F91FF90EF90DF90CF90BF90AF9054
:1022D0009F908F907F906F905F9008958091C10143
:1022E000E091BF01F091C001882349F0CF0102962F
:1022F0009093C0018093BF01859194910895CF017F
:1023000002969093C0018093BF01808191810895CE
:10231000CF92DF92EF92FF920F931F93CF93DF93B1
:102320000E946E11811520E8920761F4809171007E
:102330008D7F80937100109291004698479810927B
:10234000D2018BC021E02093D201813020E8920796
:1023500051F48091BD019091BE019093C001809392
:10236000BF010E946E1197FD05C02091D00122236C
:1023700009F43FC02091D10121113BC021E02093FD
:10238000C201EC01DF77209769F481E08093C301FB
:1023900046983FE9C32E3FE0D32EE12CF12CCAEF43
:1023A000D0E014C08E0120E030E060E472E48FE001
:1023B00090E0A90198010E94712169017A0181E0F0
:1023C000C81AD108E108F1081092C301E091420255
:1023D000F09143020995811103C081E08093C3010C
:1023E0008091C2018823B9F18091C301811133C06A
:1023F00003C01092C201C5CF46992DC0479A0E94D2
:102400006E11009771F09C01DE010E94E921DC0150
:10241000CB0129E0B595A795979587952A95D1F792
:1024200003C08FEF9FEFDC01109290002AE0209311
:102430009100D0929900C09298008093C40190932B
:10244000C501A093C601B093C7018091710082605D
:102450008093710002C04798D2CFDF91CF911F9136
:102460000F91FF90EF90DF90CF9008950F931F93FF
:10247000CF93DF931F92CDB7DEB782E0898342E42A
:1024800050E069EE76E080E80E94AF0F0E949A1952
:10249000DC0112960D911C9113970115110589F01D
:1024A000D801ED91FC910280F381E02DBE016F5FB8
:1024B0007F4FC801099597FD04C0F801008511857B
:1024C000ECCF89810F90DF91CF911F910F910895EB
:1024D0008F929F92AF92BF92CF92DF92EF92FF9234
:1024E0000F931F93CF93DF936C017B018A0180913F
:1024F0000B01882309F45CC08091E101882309F471
:1025000057C08091CE0180FF05C08091E0008260BD
:102510008093E000E801B12C8AEFA82E93E0892E89
:102520002AE3922E209711F4BB20D9F10E94891939
:1025300081110AC0AA94AA20D9F161E070E080E07C
:1025400090E00E94AE19EECF282F30E0C217D307DB
:102550000CF48C2F9FB7F8948092E9002091E8004A
:1025600025FF1DC0282F30E0C21BD30BF70181507F
:1025700020F041914093F100FACFE20EF31EBB2010
:1025800019F09092E8000AC08091E80085FD07C02C
:102590009092E800BB24B394209709F0B12C9FBF20
:1025A000C1CF5D9884E68093CD011016110644F0EA
:1025B00081E090E0F6019383828380E090E001C0A7
:1025C000C801DF91CF911F910F91FF90EF90DF90A5
:1025D000CF90BF90AF909F908F9008950E948919DF
:1025E00090E008950F931F93CF93DF931F92CDB781
:1025F000DEB78C01FC018485958597FF0EC0CE0166
:1026000001960E945B19019719F4898190E002C03C
:102610008FEF9FEFF80195878487F8018485958572
:102620000F90DF91CF911F910F910895CF93DF937A
:102630001F92CDB7DEB7FC018485958597FD05C057
:102640002FEF3FEF358724870BC0CE0101960E9404
:102650005B19019719F4898190E002C08FEF9FEF19
:102660000F90DF91CF9108951F920F920FB60F92A6
:1026700011248F939F938091E1009091E100937FCB
:102680009093E10083FF0FC01092E90091E09093D6
:10269000EB001092EC0092E39093ED001092E101B8
:1026A00098E09093F00082FF20C093E09093E900BF
:1026B0009091F200992319F09AE39093E800909199
:1026C000CD01992339F09091CD0191509093CD0196
:1026D000992389F19091E001992339F09091E001DB
:1026E00091509093E001992341F184FF10C08091B3
:1026F000E2008E7E81608093E2008091E1008F7E17
:102700008093E1008091CE018E7E806111C080FFB8
:1027100016C08091E2008E7E80618093E2008091FD
:10272000E1008E7E8093E1008091CE018E7E8160FB
:102730008093CE0104C05D9ACDCF289AD6CF9F91C9
:102740008F910F900FBE0F901F9018951F920F92B0
:102750000FB60F921124CF92DF92EF92FF920F9358
:102760001F932F933F934F935F936F937F938F9319
:102770009F93AF93BF93EF93FF93CF93DF93CDB727
:10278000DEB76C97DEBFCDBF1092E9008091E80004
:1027900083FFFBC168E0CE0145960E94D60F82EF11
:1027A0008093E8008D8987FF05C09091E80090FF35
:1027B000FCCF03C09EEF9093E800982F907609F02D
:1027C000C6C09E894F89588D2F89F88C91110CC0F5
:1027D000803829F48091CF018093F10002C01092DB
:1027E000F1001092F10045C1913051F4811141C1C5
:1027F0004130510509F03DC18091CF018D7F0BC063
:10280000933061F4811135C14130510509F031C176
:102810008091CF0182608093CF012BC1953049F424
:102820008091E80080FFFCCF822F80688093E300D6
:1028300020C1963009F05EC00B8D1C8D22E01092F5
:10284000E9001092CB011092CA01F21232C010922C
:10285000C9011092C8010E94361299E0BE016F5F53
:102860007F4FDB01E92F1D92EA95E9F79983FA8200
:1028700091E09E8390EA98879AEF99872091CA0108
:102880003091CB01275F3F4F3C832B838D83109288
:10289000E9001092CB011092CA011093C901009374
:1028A000C80149E050E080E00E94AF0F0E9436125C
:1028B000E0C01093C9010093C8010E949A19DC017D
:1028C00012960D911C9113970115110509F4BBC0C7
:1028D000D801ED91FC910480F581E02DBE016B5E85
:1028E0007F4FC8010995009709F0C7C0F80100851E
:1028F0001185EACF973009F445C1983021F481E081
:102900008093F100B6C0993009F0B3C0837009F02C
:1029100039C1E8E1F1E081E031E096E32081211165
:1029200009C08EE78093EA001092EA008F898093B5
:10293000E1019FC08093E9003093EB002191209347
:10294000EC009093ED008F5F873041F7EACF8B8DDD
:102950009C8D1092E9001092CB011092CA019093C5
:10296000C9018093C801898D811153C08E899D89C9
:10297000913A49F4813209F005C147E050E064E042
:1029800071E080E0BBC0913209F0FCC0833269F491
:102990008F89988DA0E0B0E08093000190930101B1
:1029A000A0930201B093030164C0803269F4809166
:1029B000E80082FFFCCF67E084E091E00E94D60F40
:1029C0008BEF8093E80055C0823209F052C08F89A6
:1029D00080930B01EEEFFFE7859194918B3F9C4D27
:1029E00019F0E0E0F8E002C0EEEFFAE080910401B7
:1029F00090910501A0910601B0910701803B9440A0
:102A0000A105B10509F09EC080910B0180FF79C03E
:102A100099C00E949A19FC010281138101151105C8
:102A200009F4B0C0D801ED91FC910190F081E02D46
:102A3000BE016B5E7F4FC801099581111AC0F80174
:102A400000851185EBCFF1E0FF1609F44EC0F3E0ED
:102A5000FF1298C08F89882309F44AC0823089F414
:102A600040E867E08DE497E00E947A0F882309F43C
:102A700089C08EEF8093E80088C018161906CCF341
:102A800081C0813029F440E86BE081E497E0ECCF2D
:102A9000833009F077C00E949A19DC011296ED90FC
:102AA000FC9013978E010F5F1F4F6801E114F10432
:102AB00079F0D701ED91FC910680F781E02DB80106
:102AC000C7010995080F111DF701E084F184EECFCD
:102AD000D8011C92F60101900020E9F73197BF015F
:102AE0006C197D0940E0C601BFCF6FE277E002C0FC
:102AF0006BE277E0FB01449150E080E80E94AF0F69
:102B0000B8CFEE3F2AE0F20751F0808191818737FC
:102B1000A7E79A0721F09093FF0A8093FE0A87E7C0
:102B200097E791838083809160008093CC019BE044
:102B300088E10FB6F894A895809360000FBE90933B
:102B4000600097CF808191818737974709F091CFB7
:102B5000A895809160008861809360008091CC018D
:102B600080936000EE3FBAE0FB0739F08091FE0AE7
:102B70009091FF0A918380837CCF1092FF0A10927C
:102B8000FE0A77CF81E28093EB006C960FB6F89443
:102B9000DEBF0FBECDBFDF91CF91FF91EF91BF910F
:102BA000AF919F918F917F916F915F914F913F91E5
:102BB0002F911F910F91FF90EF90DF90CF900F908A
:102BC0000FBE0F901F901895DB0114964D915C91EC
:102BD00015976D917C91DC01ED91FC910280F38160
:102BE000E02D09941F920F920FB60F9211242F938C
:102BF0003F934F935F936F937F938F939F93AF9385
:102C0000BF93EF93FF938091C4019091C501A09170
:102C1000C601B091C701892B8A2B8B2B81F1809142
:102C2000C30181110BC098B180E4892788B98091D4
:102C3000C201882319F088B1805888B98091C401F5
:102C40009091C501A091C601B091C701181619064F
:102C50001A061B06B4F48091C4019091C501A0919D
:102C6000C601B091C7010197A109B1098093C401C0
:102C70009093C501A093C601B093C70102C00E9402
:102C80008811FF91EF91BF91AF919F918F917F91AB
:102C90006F915F914F913F912F910F900FBE0F90C9
:102CA0001F9018959C01E1E7F0E090819D7F908353
:102CB0001092C101E4E3F2E0F093C001E093BF01A0
:102CC000F093BE01E093BD0131832083738362835F
:102CD00080E090E8958384830C948811BC0180E0A7
:102CE00090E00C94AE190E94BC240F931F93CF93D5
:102CF000DF93EC0188819981009729F02A813B813B
:102D00002617370788F48B016F5F7F4F0E94F623E9
:102D1000009761F0998388831B830A832C813D810E
:102D2000232B11F4FC01108281E001C080E0DF91CF
:102D3000CF911F910F910895CF93DF93EC0188817C
:102D40009981009711F00E946D23198218821D82CB
:102D50001C821B821A82DF91CF910895EF92FF921D
:102D60000F931F93CF93DF93EC017B018A01BA018C
:102D70000E947516811104C0CE010E949C1607C0E6
:102D80001D830C83B701888199810E94D324CE01D1
:102D9000DF91CF911F910F91FF90EF900895CF9306
:102DA000DF93EC016115710559F0FB0101900020E2
:102DB000E9F73197AF01461B570B0E94AE1602C0D0
:102DC0000E949C16CE01DF91CF910895CF93DF939F
:102DD000EC01FB018617970761F060817181611535
:102DE000710529F0448155810E94AE1602C00E94EF
:102DF0009C16CE01DF91CF910895FC0180819181D5
:102E00000C946D23EF92FF920F931F93CF93DF9358
:102E1000EC01198218821B821A821D821C826115A4
:102E2000710509F18B01CB010E9465207C01BC0179
:102E3000CE010E947516811109C0CE01DF91CF919C
:102E40001F910F91FF90EF900C949C16FD82EC82E5
:102E5000B80188819981DF91CF911F910F91FF90E7
:102E6000EF900C945E20DF91CF911F910F91FF9016
:102E7000EF900895FC011182108213821282158254
:102E800014820C94E616FC011182108213821282C5
:102E9000158214826115710551F0FB01019000202B
:102EA000E9F73197AF01461B570B0C94AE16089506
:102EB0003FB7F8948091060790910707A091080703
:102EC000B091090726B5A89B05C02F3F19F00196C0
:102ED000A11DB11D3FBFBA2FA92F982F8827820FA0
:102EE000911DA11DB11DBC01CD0142E0660F771FF0
:102EF000881F991F4A95D1F708950F931F93CF9379
:102F0000DF938C01C0E0D0E0F801EC0FFD1F64916D
:102F1000662341F08AEE96E00E941E05892B11F08F
:102F20002196F2CFCE01DF91CF911F910F9108959D
:102F3000FC0124813581232B49F060E671E080811A
:102F400091810E94CA2421E0892B09F020E0822F80
:102F50000895AF92BF92CF92DF92EF92FF921F93AC
:102F6000CF93DF93C82F7B018091E2019091E30121
:102F70006CE070E00E94A722182FC7300CF0C6E06A
:102F8000C7FDC0E08EE1A82E81E0B82E95E2C92EE3
:102F900091E0D92E0C2E000CDD0BC601855291401C
:102FA000C817D9078CF0C7010E949817882311F021
:102FB000F60101C0F5018081180FFFEFCF1ADF0A7B
:102FC0008FEFA81AB80AE9CF812FDF91CF911F9117
:102FD000FF90EF90DF90CF90BF90AF900895DF9279
:102FE000EF92FF920F931F93CF93DF937C01D22E2A
:102FF0008B01040F111DEB0177FF02C0C0E0D0E090
:10300000C8010134110514F080E490E0C817D90715
:103010003CF44D2DBE01C7010E945A042196F0CF09
:10302000DF91CF911F910F91FF90EF90DF90089566
:10303000DF92EF92FF920F931F93CF93DF93EC01F8
:103040007B01D42E122F6034710520F4202FCE0185
:103050000E940A04B701610F711D6150710960344B
:10306000710528F4202F4D2DCE010E940A04202F37
:10307000412FB701CE010E94EF17CE018D0D911D9A
:10308000202F412FB7010197DF91CF911F910F9111
:10309000FF90EF90DF900C94EF17009769F0FC0120
:1030A00001900020E9F73197AF01481B590BBC0193
:1030B00084ED96E00C94E30F80E090E00895EF92A9
:1030C000FF920F931F93CF93DF93EC01FB010481D9
:1030D0001581E080F180E114F104C9F001151105BA
:1030E000C9F08C819D81080F191FB801CE010E9483
:1030F0007516882361F0288139818C819D81B70103
:10310000820F931F0E94D3241D830C8303C0CE0122
:103110000E949C16CE01DF91CF911F910F91FF90DD
:10312000EF9008950F931F93CF93DF93EC010C81E1
:103130001D810F5F1F4FB8010E947516882369F02B
:10314000288139818C819D816EE571E0820F931F0A
:103150000E94D3241D830C8303C0CE010E949C16C1
:10316000CE01DF91CF911F910F9108954F925F9201
:103170006F927F928F929F92AF92BF92CF92DF9287
:10318000EF92FF920F931F93CF93DF934C013B017C
:10319000C42FD0E081E090E05C01AC1ABD0A442469
:1031A00055244C1A5D0A440C551CC12CD12C822F7D
:1031B0008170F82E0F5F122F1270CC16DD060CF006
:1031C00046C0B7FC06C0219782E0480E511CA40CF3
:1031D000B51C8FEFC81AD80AC601880F991F01962F
:1031E000A80EB91EFF20C1F04C2F440F400F2E2D0A
:1031F000B3016C1B7D0BC4018C0D9D1D0E94EF174C
:103200004C2D440F400F2E2DB3016C197D09CE01BA
:10321000880D991D0E94EF17112379F24C2F440F4E
:10322000400F2E2DB3016C1B7D0BC4018C199D0921
:103230000E94EF174C2D440F400F2E2DB3016C1937
:103240007D09C4018C1B9D0B0E94EF17B6CFDF9147
:10325000CF911F910F91FF90EF90DF90CF90BF9093
:10326000AF909F908F907F906F905F904F90089558
:10327000AF92BF92CF92DF92EF920F931F93CF93B3
:103280006C015B01C42FE22E440F4F5F6C1B710970
:103290000E94EF1700E010E023E04C2FB501C601BB
:1032A0000E94B618CF911F910F91EF90DF90CF90B1
:1032B000BF90AF9008952091E101211103C08FEFDD
:1032C0009FEF08955FB7F89422E02093E9002091E2
:1032D000F20030E01216130614F421E030E0422F21
:1032E000FC0184E6415038F028988093E0019091E9
:1032F000F1009193F7CF2115310521F08091F20073
:10330000882319F05FBFC90108958BE68093E80018
:10331000F9CF2FB7F89483E08093E9009091E8000B
:10332000892F807295FF04C09091F20080E4891B80
:103330002FBF089580910E0781110DC082E0809308
:103340000A0784E080930B0710920D0710920C0778
:1033500081E080930E078AE097E008958F929F9214
:10336000AF92BF92CF92DF92EF92FF926B017C01FE
:103370000E9458174B015C01C114D104E104F1040F
:10338000F1F00E945817DC01CB0188199909AA09AC
:10339000BB09883E9340A105B10570F321E0C21A34
:1033A000D108E108F10888EE880E83E0981EA11C80
:1033B000B11CC114D104E104F10419F7DDCFFF9071
:1033C000EF90DF90CF90BF90AF909F908F90089537
:1033D0002FB7F8946091020770910307809104075A
:1033E000909105072FBF08951F920F920FB60F926D
:1033F00011242F933F938F939F93AF93BF9380910B
:10340000020790910307A0910407B091050730913E
:10341000010723E0230F2D3720F40196A11DB11DD4
:1034200005C026E8230F0296A11DB11D20930107B8
:103430008093020790930307A0930407B0930507B6
:103440008091060790910707A0910807B09109079E
:103450000196A11DB11D8093060790930707A093C5
:103460000807B0930907BF91AF919F918F913F914A
:103470002F910F900FBE0F901F9018958F929F92D3
:10348000AF92BF92CF92DF92EF92FF920F931F9372
:10349000CF93DF93CDB7DEB72C970FB6F894DEBF8E
:1034A0000FBECDBF7C016B014A0159016FE571E090
:1034B000CE0107960E944317F60104811581081575
:1034C0001905C4F4BE01695F7F4FCE0101960E94C9
:1034D0003A17B501CE0101960E945F18BC01CE01DA
:1034E00007960E94E616CE0101960E94FD160F5F18
:1034F0001F4FE5CFB601CE0101960E943A17BE01DB
:10350000695F7F4FCE0101960E945F18BC01C70121
:103510000E943A17CE0101960E94FD16CE01079631
:103520000E94FD16C7012C960FB6F894DEBF0FBEA1
:10353000CDBFDF91CF911F910F91FF90EF90DF9062
:10354000CF90BF90AF909F908F9008950F931F934F
:10355000CF93DF93EC0181E090E00E94692180FF2E
:103560002EC08AE090E00E9469219FEF980F9E3F55
:1035700030F522E330E0388B2F8728E330E03A8BB8
:10358000298B0BE010E0E881F9810190F081E02DBA
:10359000682FCE010995C8010E9469210F5F1F4F56
:1035A0000131110581F7CE0104960E944A0488EE8C
:1035B00093E0DF91CF911F910F910C946E16DF91E4
:1035C000CF911F910F91089504970C94A61ACF9351
:1035D000DF93CCE8D2E02697CE010E94FD1682E070
:1035E000C434D807C1F7C4EDD2E02697CE010E94BB
:1035F000FD1682E0CC38D807C1F7DF91CF9108954E
:10360000CF93DF9300D000D000D0CDB7DEB7789451
:1036100084B5826084BD84B5816084BD85B58260D7
:1036200085BD85B5816085BD80916E008160809388
:103630006E001092810080918100826080938100F1
:103640008091810081608093810080918000816001
:10365000809380008091910082608093910080919E
:1036600091008160809391008091900081608093AF
:1036700090008091C10084608093C1008091C1005E
:1036800082608093C1008091C10081608093C100FD
:103690008091C30081608093C3008091C0008260EC
:1036A0008093C0008091C20081608093C2008091AD
:1036B0007A00846080937A0080917A00826080939F
:1036C0007A0080917A00816080937A0080917A00FC
:1036D000806880937A001092E1011092CF011092DD
:1036E000CE018091D70081608093D70080EA8093DB
:1036F000D80089B5806189BD89B5826089BD09B46A
:1037000000FEFDCF61E070E080E090E00E94AE1925
:103710008091D8008F7C80618093D8008091E000F8
:10372000807F8093E0008091E1008E7E8093E100B5
:103730008DE08093E200559A209A81EC80937C0082
:1037400085B1806F85B984B1877E84B984B1876E75
:1037500084B95E9A5F988AB1806D8AB9769A6E98BC
:1037600081B3806F81BB899880B38D7080BB80E509
:103770008CBD81E08DBD85E090E00E946E165F9A61
:1037800085E090E00E946E165E985C9805E517E073
:10379000B2E6EB2EB7E0FB2EF80184910E94F9030C
:1037A0000F5F1F4FE016F106B9F75C9A81E880932E
:1037B0006400809165008160809365008FEF9FEFCA
:1037C0009093F1018093F00181E28093F50680E00F
:1037D0000E94000E8EEE96E00E944A041092D101E3
:1037E0001092D00181E08093D0010E94E81960938B
:1037F000DC017093DD018093DE019093DF01E9E647
:10380000AE2EB12CF5E04F2E512CACE07A2E8091EB
:10381000F3068093F4060E94F1038093F3060E945E
:10382000F103E82EF12C8091D9019091DA01E8168C
:10383000F90609F052C0F8E0EF16F10409F04DC0A6
:103840000E94E8190091D5011091D6012091D7016D
:103850003091D801DC01CB01801B910BA20BB30B83
:10386000883B9B40A105B105C0F19091D30181E057
:1038700089278093D301B092E206A092E106B0922C
:10388000E006A092DF065092E4064092E306882309
:1038900029F080E691E00E944D180EC009E610E084
:1038A00020E044E065E070E0C8010E94EF170F5F80
:1038B0001F4F0D361105A1F78EEE96E00E944A04C7
:1038C00081E08093D4010E94E8196093D501709340
:1038D000D6018093D7019093D8018091F40683FF9D
:1038E0001AC08091F30683FD16C00E94E81900916A
:1038F000D5011091D6012091D7013091D801DC017A
:10390000CB01801B910BA20BB30B883B9B40A10505
:10391000B10508F4F3C08091D9019091DA01E8165D
:10392000F90609F4ADC0E114F10409F4A9C010923C
:10393000DB015C9886EA0E94F9035C9A80E4E81651
:10394000F104E9F480910C01811106C08091E2013B
:103950009091E301019620C0813031F48091E20121
:103960009091E30101962AC08250823008F0A2C2F1
:103970002091E2013091E301C901019634C0E0E2F7
:10398000EE16F104E9F580910C01811110C08091CF
:10399000E2019091E301479668E170E00E94A7225E
:1039A0009093E3018093E2010E94AC0B83C28130CB
:1039B00081F48091E2019091E301479668E170E023
:1039C0000E94A7229093E3018093E2010E94000AE3
:1039D00071C28250823008F06DC22091E2013091B4
:1039E000E301C9010B966CE070E00E94A72280936E
:1039F000E2019093E301682F822F0E94F2085AC2DD
:103A0000F0E8EF16F10441F480910C01815082300E
:103A100020F581E090E00BC0F0E1EF16F10451F4E5
:103A200080910C0181508230C0F48FEF9FEF0E9493
:103A3000450713C024E0E216F10409F03BC280916F
:103A40000C01882309F46AC0813009F4FEC0823079
:103A500009F4D4C1833009F4FCC1F092DA01E09298
:103A6000D9010E94E8196093DC017093DD01809315
:103A7000DE019093DF018EEE96E00E944A0408C0BA
:103A80000E94F103811104C01092DA011092D90151
:103A90000E94E8190091DC011091DD012091DE0106
:103AA0003091DF01DC01CB01801B910BA20BB30B2A
:103AB00081319742A105B105C8F09091DB0181E009
:103AC00089278093DB01811102C086EA01C087EA61
:103AD0005C980E94F9035C9A0E94E8196093DC01EB
:103AE0007093DD018093DE019093DF0180E090E030
:103AF000892B09F48CCE0E94000081CE8091D401E4
:103B0000811109CF81E00E94000EF092DA01E0926B
:103B1000D9018EEE96E00E944A04FDCE8091E2012A
:103B20009091E3010B96479718F062E671E002C0AE
:103B300060E671E0CE0101960E944317BE016F5FFF
:103B40007F4F80E00E94A917672D0E949B22E92FDA
:103B5000F0E0EE0FFF1F8F010E59184FCE010196B6
:103B60000E94FD16F801859094908091D3018111F7
:103B700002C00E940404612CC12CD12C8091E2016E
:103B80009091E3010B96479718F062E671E002C04E
:103B900060E671E0CE0101960E944317BE016F5F9F
:103BA0007F4F862D0E94A917672D0E949B22092F07
:103BB00010E0000F111F0E59184FCE0101960E9400
:103BC000FD16F801859194918815990514F4880FD4
:103BD000991F68EE73E00E9452168091E201909165
:103BE000E3010C971CF46BE070E002C065E170E04B
:103BF00001E02BE042E1C6010E9418188EEE96E02B
:103C00000E944A048091D2018111FCCF8091E2018F
:103C10009091E3010C971CF46BE070E002C065E149
:103C200070E000E02BE042E1C6010E9418188EEE21
:103C300096E00E944A0422E1C20ED11C63948EE7F2
:103C4000C816D10409F09ACF32C18091E201909157
:103C5000E3010B96479718F062E671E002C060E658
:103C600071E0CE0101960E944317BE016F5F7F4F46
:103C700080E00E94A917672D0E949B22E92FF0E0A7
:103C8000EE0FFF1F8F010E59184FCE0101960E94B3
:103C9000FD16F801859094908091D301811102C0A6
:103CA0000E940404C12CD12C612C8091E2019091DE
:103CB000E3010B96479718F062E671E002C060E6F8
:103CC00071E0CE0101960E944317BE016F5F7F4FE6
:103CD000862D0E94A917672D0E949B22092F10E0B4
:103CE000000F111F0E59184FCE0101960E94FD16AC
:103CF000F801859194918815990514F4880F991FFE
:103D000068EE73E00E9452168091E2019091E30107
:103D10000C971CF46BE070E002C065E170E001E01C
:103D20002BE042E1C6010E9418188091E2019091B7
:103D3000E3010B96479718F062E671E002C060E677
:103D400071E0CE0101960E944317BE016F5F7F4F65
:103D5000862D0E94A917672D0E949B2261E0892F62
:103D600090E00E941108CE0101960E94FD168EEE91
:103D700096E00E944A048091D2018111FCCF80918B
:103D8000E2019091E3010C971CF46BE070E002C03B
:103D900065E170E000E02BE042E1C6010E941818E6
:103DA0008091E2019091E3010B96479718F062E64B
:103DB00071E002C060E671E0CE0101960E944317F7
:103DC000BE016F5F7F4F862D0E94A917672D0E944D
:103DD0009B2260E0892F90E00E941108CE0101969D
:103DE0000E94FD168EEE96E00E944A046394E2E182
:103DF000CE0ED11CF7E06F1258CF59C08091D3017D
:103E0000811102C00E940404E091E201F091E301FB
:103E1000EE0FFF1FEE59F84F8591949160ED77E01A
:103E20000E94521661E08091E2019091E3010E94AC
:103E300011088EEE96E00E944A048091D201811111
:103E4000FCCF60E08091E2019091E3010E941108B3
:103E50002AC08091D301811102C00E940404E09124
:103E6000E201F091E301EE0FFF1FEE59F84F85914B
:103E7000949160ED77E00E94521661E08091E2013A
:103E80009091E3010E9469058EEE96E00E944A043B
:103E90008091D2018111FCCF60E08091E20190918C
:103EA000E3010E9469058EEE96E00E944A040E949A
:103EB000FF03D3CD88E0E816F10409F0CECD0E94CF
:103EC000E8196093D5017093D6018093D701909340
:103ED000D8011092D401C1CDE4EEF1E01382128238
:103EE00088EE93E0A0E0B0E084839583A683B78357
:103EF00080E391E0918380838FEF9FEF95878487A4
:103F0000EAEEF6E0138212821186128680E1838740
:103F10001086178215868EE491E0918380838CE56C
:103F200091E095838483108A1786128A118A81E032
:103F3000838B148A858B168A29EE33E030934302F3
:103F40002093420220E030E8309341022093400267
:103F500046983E9A47983F9AE4EDF6E01382128223
:103F600022E431E03183208324ED32E0368325835F
:103F700020E830E03087278320E430E03287218753
:103F800095E0948B838B16861586108A1786148687
:103F9000138681E090E0928B818B148264E771E05C
:103FA0008CE892E00E94431766E771E082E992E0B4
:103FB0000E94431769E771E088E992E00E94431785
:103FC0006BE771E08EE992E00E9443176EE771E0C3
:103FD00084EA92E00E94431762E771E08AEA92E085
:103FE0000E94431760E871E080EB92E00E94431763
:103FF00063E871E086EB92E00E94431765E871E0A8
:104000008CEB92E00E94431768E871E082EC92E04A
:104010000E9443176AE871E088EC92E00E9443171F
:104020006DE871E08EEC92E00E9443176FE871E05A
:1040300084E492E00E94431762E971E08AE492E02E
:104040000E94431766E971E080E592E00E94431701
:1040500069E971E086E592E00E9443176DE971E03D
:104060008CE592E00E94431760EA71E082E692E0FC
:104070000E94431763EA71E088E692E00E944317CA
:1040800067EA71E08EE692E00E9443176BEA71E006
:1040900084E792E00E9443176FEA71E08AE792E0BA
:1040A0000E94431762EB71E080E892E00E944317A0
:1040B00066EB71E086E892E00C944317FB01DC01AB
:1040C00005900D920020E1F70895FC010590002075
:1040D000E9F7809590958E0F9F1F0895E89409C089
:1040E00097FB3EF490958095709561957F4F8F4F2B
:1040F0009F4F9923A9F0F92F96E9BB279395F69541
:10410000879577956795B795F111F8CFFAF4BB0FBE
:1041100011F460FF1BC06F5F7F4F8F4F9F4F16C022
:10412000882311F096E911C0772321F09EE8872FAC
:10413000762F05C0662371F096E8862F70E060E068
:104140002AF09A95660F771F881FDAF7880F9695E1
:10415000879597F908950E94BE200C942F210E9404
:10416000212138F00E94282120F0952311F00C9491
:1041700018210C941E2111240C9463210E944021CB
:1041800070F3959FC1F3950F50E0551F629FF001AA
:10419000729FBB27F00DB11D639FAA27F00DB11DC3
:1041A000AA1F649F6627B00DA11D661F829F22274C
:1041B000B00DA11D621F739FB00DA11D621F839FD3
:1041C000A00D611D221F749F3327A00D611D231FA9
:1041D000849F600D211D822F762F6A2F11249F57F7
:1041E00050409AF0F1F088234AF0EE0FFF1FBB1FFA
:1041F000661F771F881F91505040A9F79E3F5105B9
:1042000080F00C9418210C9463215F3FE4F3983EF6
:10421000D4F3869577956795B795F795E7959F5F62
:10422000C1F7FE2B880F911D9695879597F90895F4
:1042300097F99F6780E870E060E008959FEF80EC59
:10424000089500240A9416161706180609060895FC
:1042500000240A9412161306140605060895092E62
:104260000394000C11F4882352F0BB0F40F4BF2BD1
:1042700011F460FF04C06F5F7F4F8F4F9F4F089511
:1042800057FD9058440F551F59F05F3F71F0479507
:10429000880F97FB991F61F09F3F79F087950895EC
:1042A000121613061406551FF2CF4695F1DF08C00B
:1042B000161617061806991FF1CF86957105610528
:1042C00008940895E894BB2766277727CB0197F9D0
:1042D0000895F999FECF92BD81BDF89A992780B5CE
:1042E0000895052E97FB1EF400940E94882157FD27
:1042F00007D00E94C72107FC03D04EF40C948821FC
:1043000050954095309521953F4F4F4F5F4F089501
:1043100090958095709561957F4F8F4F9F4F089531
:104320002F923F924F925F926F927F928F929F92C5
:10433000AF92BF92CF92DF92EF92FF920F931F93B3
:10434000CF93DF93CDB7DEB7CA1BDB0B0FB6F89464
:10435000DEBF0FBECDBF09942A88398848885F84A4
:104360006E847D848C849B84AA84B984C884DF8015
:10437000EE80FD800C811B81AA81B981CE0FD11DF9
:104380000FB6F894DEBF0FBECDBFED010895A1E2D8
:104390001A2EAA1BBB1BFD010DC0AA1FBB1FEE1FBF
:1043A000FF1FA217B307E407F50720F0A21BB30B0A
:1043B000E40BF50B661F771F881F991F1A9469F786
:1043C00060957095809590959B01AC01BD01CF01E2
:1043D0000895A29FB001B39FC001A39F700D811DDE
:1043E0001124911DB29F700D811D1124911D0895FE
:1043F0005058BB27AA270E9410220C942F210E94FC
:10440000212138F00E94282120F039F49F3F19F42F
:1044100026F40C941E210EF4E095E7FB0C94182171
:10442000E92F0E94402158F3BA17620773078407E7
:10443000950720F079F4A6F50C9462210EF4E0952E
:104440000B2EBA2FA02D0B01B90190010C01CA014E
:10445000A0011124FF27591B99F0593F50F4503EF9
:1044600068F11A16F040A22F232F342F4427585FEB
:10447000F3CF469537952795A795F0405395C9F703
:104480007EF41F16BA0B620B730B840BBAF09150BB
:10449000A1F0FF0FBB1F661F771F881FC2F70EC05A
:1044A000BA0F621F731F841F48F48795779567952D
:1044B000B795F7959E3F08F0B0CF9395880F08F019
:1044C0009927EE0F9795879508950E946C2268941E
:1044D000B1110C94632108950E94482188F09F57E0
:1044E00098F0B92F9927B751B0F0E1F0660F771F18
:1044F000881F991F1AF0BA95C9F714C0B13091F00E
:104500000E946221B1E008950C946221672F782FF8
:104510008827B85F39F0B93FCCF3869577956795D2
:10452000B395D9F73EF490958095709561957F4F3E
:104530008F4F9F4F0895991B79E004C0991F9617DC
:1045400008F0961B881F7A95C9F78095089597FB08
:10455000072E16F4009407D077FD09D00E94BB22E5
:1045600007FC05D03EF4909581959F4F0895709576
:1045700061957F4F0895AA1BBB1B51E107C0AA1F7D
:10458000BB1FA617B70710F0A61BB70B881F991FF4
:104590005A95A9F780959095BC01CD010895EE0F2D
:1045A000FF1F0590F491E02D09940F931F93CF9373
:1045B000DF938230910510F482E090E0E0911807DB
:1045C000F091190720E030E0A0E0B0E0309719F159
:1045D000408151810281138148175907C8F084171F
:1045E000950769F4109731F012960C931297139671
:1045F0001C9327C0009318071093190722C0211598
:10460000310519F04217530718F49A01BD01EF0163
:10461000DF01F801DBCF21153105F9F0281B390B3B
:104620002430310580F48A819B816115710521F068
:10463000FB019383828304C090931907809318072A
:10464000FE01329644C0FE01E20FF31F8193919365
:1046500022503109398328833AC0209116073091BE
:104660001707232B41F420910F0130911001309353
:1046700017072093160720910D0130910E01211587
:10468000310541F42DB73EB740911101509112010F
:10469000241B350BE0911607F0911707E217F3077B
:1046A000A0F42E1B3F0B2817390778F0AC014E5FA2
:1046B0005F4F2417350748F04E0F5F1F50931707C1
:1046C000409316078193919302C0E0E0F0E0CF01A0
:1046D000DF91CF911F910F910895CF93DF930097B2
:1046E00009F481C0FC01329713821282A09118074D
:1046F000B0911907109781F420813181820F931FA7
:1047000020911607309117072817390751F5F093B4
:104710001707E093160767C0ED0120E030E0CE17E1
:10472000DF0740F44A815B819E0141155105F1F09C
:10473000EA01F5CFD383C28340815181840F951F55
:10474000C817D90759F488819981840F951F02965B
:10475000918380838A819B81938382832115310594
:1047600029F4F0931907E09318073DC0E901FB8392
:10477000EA8349915991C40FD51FEC17FD0761F4E5
:1047800080819181840F951F0296E9019983888326
:10479000828193819B838A83E0E0F0E012968D9181
:1047A0009C911397009719F0FD01DC01F7CF8D91D3
:1047B0009C9111979D012E5F3F4F820F931F209177
:1047C0001607309117072817390769F4309729F42D
:1047D000109219071092180702C013821282B09328
:1047E0001707A0931607DF91CF910895A0E0B0E0DE
:1047F000ECEFF3E20C949421EC01009721F4CB014F
:104800000E94D522B4C0FC01E60FF71F9C01225084
:104810003109E217F30708F4A8C0D9010D911C91E2
:10482000119706171707B0F00530110508F49BC063
:10483000C80104978617970708F495C0025011091C
:10484000061B170B019311936D937C93CF010E946C
:104850006D2389C05B01A01AB10A4C01800E911E24
:10486000A0911807B0911907612C712CE12CF12C43
:10487000109709F446C08D919C911197A815B90520
:10488000B1F56C0142E0C40ED11CCA14DB0478F10E
:104890004C018A189B08640142E0C40ED11C129698
:1048A000BC9012971396AC91B5E0CB16D10440F0B2
:1048B000B282A38391828082D9016D937C9309C0D7
:1048C0000E5F1F4F800F911FF90191838083EB2DA5
:1048D000FA2FE114F10431F0D7011396FC93EE9313
:1048E000129741C0F0931907E09318073CC068166F
:1048F000790608F43C017D0112960D90BC91A02D23
:10490000B7CF809116079091170788169906E1F4A2
:1049100066167706C8F480910D0190910E010097FC
:1049200041F48DB79EB74091110150911201841B43
:10493000950BE817F907C8F4F0931707E0931607EB
:10494000F901718360830FC0CB010E94D5227C01E5
:10495000009759F0A801BE010E94C124CE010E9417
:104960006D23C70104C0CE0102C080E090E0CDB746
:10497000DEB7EEE00C94B02181E090E0F8940C9466
:10498000DA24FB01DC0102C001900D92415050403D
:10499000D8F70895FB01DC018D9101908019011079
:1049A000D9F3990B0895FB01DC0101900D920020D1
:1049B000E1F7089513E0CEEBD3E004C0FE010E94BE
:0E49C000CF222196CF3BD107C9F7F894FFCF45
:1049CE00FFFFFFFF00E10000000000000100001AE1
:1049DE000780000702090400C18081000000000268
:1049EE0001020201020002020102020200000000A6
:1049FE000D106812EE1223102E101613F212000074
:104A0E000000C710E30FEE03ED03000000001E05CB
:104A1E00E30FEE03ED03A61AFCFF0000E41A2000DC
:104A2E004D006D0041654E4B45594D414E50454E22
:104A3E00494E460043004462004400456200450072
:104A4E00476200470041620041004262004200445A
:104A5E006F00526562005265004D6962004D69003B
:104A6E00466100536F6200536F6C004C6162004CE4
:0A4A7E0061005369620053690000F3
:00000001FF
